:1000000013C02DC02CC02BC02AC029C028C027C0B7
:1000100026C025C024C023C022C021C020C01FC0CC
:100020001EC01DC01CC01BC011241FBECFEFD2E0DC
:10003000DEBFCDBF11E0A0E0B1E0E0E3F2E002C03E
:1000400005900D92A634B107D9F721E0A6E4B1E0FE
:1000500001C01D92A734B207E1F708D0E7C0D0CFA6
:10006000882311F02D9808952D9A0895CF93DF934A
:1000700000D0CDB7DEB77894259A269A85B18560F1
:1000800085B981E0EDDF2FEF89E698E121508040CE
:100090009040E1F700C0000080E0E2DFEFEFF0E722
:1000A00022E0E150F0402040E1F700C0000048D0DD
:1000B00062E483E091E052D081E1898381E98A831F
:1000C00010E00F2EF0E0CF2EF1E0DF2EF02D8FEFBD
:1000D0009CE70197F1F700C00000199BF8CF10FBD7
:1000E000EE24E0F8F12CE1E0F0E0EC0FFD1FEE0D66
:1000F000FF1D8081F60182831F5F63E0C6012ED061
:10010000E6CF8093B90022E0E8EBF0E09BE2A9EBB8
:10011000B0E0822F8A95F1F790831A9BFECF822F51
:100120008A95F1F790838C9186FFF3CF82E08A95D0
:10013000F1F7EAEBF0E080819FEF9083209A089539
:10014000289A2A9A229A209A8FEF8093BA008AE2FC
:100150008093B80080EF8093B9000895BF92CF924A
:10016000DF92EF92FF920F931F93CF93DF93EC01F7
:10017000162F1092460198819170C92E2A9A2A9BB7
:10018000FECF92E0892F8A95F1F72898892F8A95DA
:10019000F1F72A989A95F1F7289A01E00F2EFAEBD9
:1001A000EF2EF12CF02DBB24BA94D12C011102C0FA
:1001B000C11014C02A988881F701808380EFA1DFE5
:1001C00020988EEF9EDF80FF16C0011102C085E0EF
:1001D00001C086E08093460180E01EC0209880EF39
:1001E00090DF8883113019F4F701B08202C0F70163
:1001F00010828EEF86DF115021960D2D1111D6CF72
:1002000028982A9A1A9BFECF82E0982F9A95F1F7A8
:10021000289A8A95F1F781E0DF91CF911F910F9194
:10022000FF90EF90DF90CF90BF900895F894FFCFAC
:10023000B80401B8000064002011013051009000A2
:10024000407880522E5D200303000411120100C289
:100250008707001010100006000000000053080778
:10026000855000808C041818600310000000000006
:06027000000003040F0072
:00000001FF
