:1000000013C02DC02CC02BC02AC029C028C027C0B7
:1000100026C025C024C023C022C021C020C01FC0CC
:100020001EC01DC01CC01BC011241FBECFEFD2E0DC
:10003000DEBFCDBF11E0A0E0B1E0E6EEF1E002C02E
:1000400005900D92A234B107D9F721E0A2E4B1E006
:1000500001C01D92A334B207E1F708D0C2C0D0CFCF
:10006000882311F02D9808952D9A08957894239A55
:10007000259A269A85B1856085B981E0F1DF2FEF59
:1000800089E698E1215080409040E1F700C00000EF
:1000900080E0E6DF2FEF80E792E021508040904043
:1000A000E1F700C0000027D062E480E091E031D0A9
:1000B0002B9800C02B9AFCCF8093B90022E0E8EB8C
:1000C000F0E09BE2A9EBB0E0822F8A95F1F79083F4
:1000D0001A9BFECF822F8A95F1F790838C9186FF31
:1000E000F3CF82E08A95F1F7EAEBF0E080819FEFB1
:1000F0009083209A0895289A2A9A229A209A8FEF1C
:100100008093BA008AE28093B80080EF8093B900B0
:100110000895BF92CF92DF92EF92FF920F931F93B9
:10012000CF93DF93EC01162F1092420198819170CA
:10013000C92E2A9A2A9BFECF92E0892F8A95F1F741
:100140002898892F8A95F1F72A989A95F1F7289A95
:1001500001E00F2EFAEBEF2EF12CF02DBB24BA9418
:10016000D12C011102C0C11014C02A988881F70156
:10017000808380EFA1DF20988EEF9EDF80FF16C086
:10018000011102C085E001C086E08093420180E059
:100190001EC0209880EF90DF8883113019F4F7019A
:1001A000B08202C0F70110828EEF86DF11502196D7
:1001B0000D2D1111D6CF28982A9A1A9BFECF82E0D6
:1001C000982F9A95F1F7289A8A95F1F781E0DF91B7
:1001D000CF911F910F91FF90EF90DF90CF90BF9044
:0601E0000895F894FFCF22
:1001E600B80000640020010610510090004078809D
:1001F600522E5D200303000411120000C27707008F
:10020600101010000600000000005308078550007B
:10021600808C041818600310000000000000000322
:02022600040FC3
:00000001FF
