:02000000ff00ff
:080002004c6174746963650030
:17000a00694345637562653220323031372e30382e32373934300069
:16002100506172743a2069434534304858384b2d42473132310016
:1b003700446174653a2053657020323320323031382032333a31333a35370075
:0200520000ffad
:040054007eaa997e69
:02005800510055
:02005a0001059e
:03005c00920020ef
:03005f00620367d2
:0300620072011018
:0300650082000016
:02006800110085
:02006a00010192
:20006c00000000000000000000000000000000000000000000000000000000000000000074
:20008c00000000000000000000000000000000000000000000000000000000000000000054
:2000ac00000000000000000000000000000000000000000000000000000000000000000034
:0d00cc000000000000000000000000000027
:2000d900000000000000000000000000000000000000000000000000000000000000000007
:2000f9000000000000000000000000000000000000000000000000000000000000000000e7
:200119000000000000000000000000000000000000000000000000000000000000000000c6
:0d01390000000000000000000000000000b9
:20014600000000000000000000000000000000000000000000000000000000000000000099
:20016600000000000400000000000010000000000000000000000000000000000000000065
:20018600000000000100000000000004000000000000000000000000000000000000000153
:0d01a6000000000000000400000000000048
:2001b30000000000000000000000000000000000000000000000000000000000000000002c
:2001d30000000000000000000000000000000000000000000000000000000000000000000c
:2001f3000000000000000000000000000000000000000000000000000000000000000000ec
:0d02130000000000000000000000000000de
:200220000000000000000000000000000000000000000000000000000000000000000000be
:2002400000000000000000000000000000000000000000000000000000000000000000009e
:2002600000000000000000000000000000000000000000000000000000000000000000007e
:0d0280000000000000000000000000000071
:20028d00000000000000000000000000000000000000000000000000000000000000000051
:2002ad00000000000000010000000000000000000000000000000000000000000000000030
:2002cd00000000000000000000000000000000000000000000000000000000000000000011
:0d02ed000000000000000000010000000003
:2002fa000000000000000000000000000000000000000000000000000000000000000000e4
:20031a000000000000000000000000100000000000000000000000000000000000000000b3
:20033a00000000000200001800000004000010000000000000000000000000000000000372
:0d035a000000440000000000000000000052
:20036700000000000000000000000000000000000000000000000000000000000000000076
:20038700000000000000010000000020000000000000000000000000000000000000000035
:2003a7000000000000000000000000000000400000000000000000000000000000000000f6
:0d03c7000000000000000800010000000020
:2003d400000000000000000000000000000000000000000000000000000000000000000009
:2003f400000000000000001000000000000040000000000000000000000000000000000099
:200414000000000000000004000000000000100000000000000000000000000000000000b4
:0d04340000000400000000000010000000a7
:2004410000000000000000000000000000000000000000000000000000000000000000009b
:2004610000000000000000000000000000000000000000000000000000000000000000007b
:2004810000000000000000000000000000000000000000000000000000000000000000005b
:0d04a100000000000000000000000000004e
:2004ae0000000000000000000000000000000000000000000000000000000000000000002e
:2004ce0000000000000000000000000000000000000000000000000000000000000000000e
:2004ee000000000000000000000000040000000000000000000000000000000000000001e9
:0d050e0000000000000000000000000000e0
:20051b000000000000000000000000000000000000000000000000000000000000000000c0
:20053b000000000000000000000000000000000000000000000000000000000000000000a0
:20055b00000000000000000000000000000000000000000000000000000000000000000080
:0d057b000000000000000000000000000073
:20058800000000000000000000000000000000000000000000000000000000000000000053
:2005a800000000000000000000000000000000000000000000000000000000000000000033
:2005c800000000000000000000000000000000000000000000000000000000000000000013
:0d05e8000000000000000000000000000006
:2005f5000000000000000000000000000000000000000000000000000000000000000000e6
:200615000000000000000000000000000000000000000000000000000000000000000000c5
:200635000000000000000000000000040000000000000000000000000000000000000001a0
:0d0655000000000000000000000000000098
:20066200000000000000000000000000000000000000000000000000000000000000000078
:20068200000000000000000000000000000000000000000000000000000000000000000058
:2006a200000000000000000000000000000000000000000000000000000000000000000038
:0d06c200000000000000000000000000002b
:2006cf0000000000000000000000000000000000000000000000000000000000000000000b
:2006ef000000000000000000000000000000000000000000000000000000000000000000eb
:20070f000000000000000000000000000001000000000000000000000000000000000000c9
:0d072f0000000000000000000000000000bd
:20073c0000000000000000000000000000000000000000000000000000000000000000009d
:20075c0000000000000000000000000000000000000000000000000000000000000000007d
:20077c0000000000000000000000000000000000000000000000000000000000000000005d
:0d079c000000000000000000000000000050
:2007a900000000000000000000000000000000000000000000000000000000000000000030
:2007c900000000000000000000000000000000000000100000000000000000000000000000
:2007e9000000000000000000000000000000000000000000000000000000000000000000f0
:0d08090000000000000000000000000000e2
:200816000000000000000000000000000000000000000000000000000000000000000000c2
:2008360000000000000000000000000000000000000a001e0000000000000000000000007a
:20085600000000000000000000000000000000000000000000000000000000000000000082
:0d0876000000000000000000000000000075
:20088300000000000000000000000000000000000000000000000000000000000000000055
:2008a30000000000000000000000000000000000000a00000000000000000000000000002b
:2008c300000000000280000000000000000000000000000000000000000000000000000093
:0d08e3000000000000000000000000000008
:2008f0000000000000000000000000000000000000000000000000000000000000000000e8
:200910000000000000000000000000000000000000000000000000000000000000000000c7
:200930000000000000000000000000000000000000000000000000000100000000000000a6
:0d095000000000000000000000000000009a
:20095d0000000000000000000000000000000000000000000000000000000000000000007a
:20097d0000000000000000000000000000000000000000000000000000000000000000005a
:20099d0000000000000000000000000000000000000000000000000000000000000000003a
:0d09bd00000000000000000000000000002d
:2009ca0000000000000000000000000000000000000000000000000000000000000000000d
:2009ea000000000000000000000000000000000000000000000000000000000000000000ed
:200a0a000000000000000000000000000000000000000000000000000000000000000000cc
:0d0a2a0010000000000000000000000000af
:200a370000000000000000000000000000000000000000000000000000000000000000009f
:200a570000000000000000000000000000000000000000000000000000000000000000007f
:200a770000000000000000000000000000000000000000000000000000000000000000005f
:0d0a97000000000000000000000000000052
:200aa400000000000000000000000000000000000000000000000000000000000000000032
:200ac400000000000000000000000000000000000000000000604000000000000000000072
:200ae4000000000000000000000000000000000000000000000000000000000000000000f2
:0d0b040000000000000000000000000000e4
:200b11000000000000000000000000000000000000000000000000000000000000000000c4
:200b31000000000000000000000000000000000000000000000000000000000000000000a4
:200b5100000000000000000000000000000000000000000000000000000000000000000084
:0d0b71000000000000000000000000000077
:200b7e00000000000000000000000000000000000000000000000000000000000000000057
:200b9e00000000000000000000000000000000000000000000000000000000000000000037
:200bbe00000000000000000000000000000000000000000000000000000000000000000017
:0d0bde00000000000000000000000000000a
:200beb000000000000000000000000000000000000000000000000000000000000000000ea
:200c0b000000000000000000000000000000000000000000000000000000000000000000c9
:200c2b000000000000000000000000000000000000000000000000000000000000000000a9
:0d0c4b00000000000000000000000000009c
:200c580000000000000000000000000000000000000000000000000000000000000000007c
:200c7800000000000000000000000000000000000000000e0000000000000000000000004e
:200c980000000000000000000000000000000000000000000000000000000000000000003c
:0d0cb800000000000000000000000000002f
:200cc50000000000000000000000000000000000000000000000000000000000000000000f
:200ce5000000000000000000000000000000000000000002000000000000000000000000ed
:200d05000000000000000000000000000000000000000000000000000000000000000000ce
:0d0d250000000000000000000000000000c1
:200d32000000000000000000000000000000000000000000000000000000000000000000a1
:200d520000000000000000000000000000000000000c000400000000000000000000000071
:200d7200000000000000000000000000000000000000000000000000000000000000000061
:0d0d92000000000000000000000000000054
:200d9f00000000000000000000000000000000000000000000000000000000000000000034
:200dbf0000000000000000000000000000000000000c000200000000000000000000000006
:200ddf000000000000000000000000000000000000000000000000000000000000000000f4
:0d0dff0000000000000000000000000000e7
:200e0c000000000000000000000000000000000000000000000000000000000000000000c6
:200e2c00000000000000000000000000000000000000100000000000000000000000000096
:200e4c00000000000000000000000000000000000000000000000000000000000000000086
:0d0e6c000000000000000000000000000079
:200e7900000000000000000000000000000000000000000000000000000000000000000059
:200e9900000000000000000000000000000000000000100000000000000000000000000029
:200eb900000000000000000000000000000000000000000000000000000000000000000019
:0d0ed900000000000000000000000000000c
:200ee6000000000000000000000000000000000000000000000000000000000000000000ec
:200f060000000000000000000000000000000000000a101c00000000000000000000000095
:200f26000000000000000000000000000000000000000000000000000000000000000000ab
:0d0f4600000000000000000000000000009e
:200f530000000000000000000000000000000000000000000000000000000000000000007e
:200f7300000000000000000000000000000000000008100200000000000000000000000044
:200f930000000000000000000000000000000000000000000000000000000000000000003e
:0d0fb3000000000000000000000000000031
:200fc000000000000000000000000000000000000000000000000000000000000000000011
:200fe0000000000000000000000000000000000000000000000000000000000000000000f1
:201000000000000000000000000000000000000000000000000000000000000000000000d0
:0d10200000000000000004000000000000bf
:20102d000000000000000000000000000000000000000000000000000000000000000000a3
:20104d00000000000000000000000000000000000000100000000000000000000000000073
:20106d00000000000000000000000000000000000000000000000000000000000000000063
:0d108d000000000000000a0000000000004c
:20109a00000000000000000000000000000000000000000000000000000000000000000036
:2010ba000000000000140000000000000000000000000004000000000000000000000000fe
:2010da000000000000000000000000000800000000000000000000000000000000000000ee
:0d10fa0000000000000000000000000000e9
:201107000000000000000000000000000000000000000000000000000000000000000000c8
:20112700000000000000000000000000000000000000100200000000000000000000000096
:20114700000000000028000000000000000000000000000000000000000000000000000060
:0d116700000000000000000000000000007b
:2011740000000000000000000000000000000000000000000000000000000000000000005b
:2011940000000000000000000000000000000000000000000060400000000000000000009b
:2011b40000000000000000000000000000000000000000000000000000000000000000001b
:0d11d400000000000000000000000000000e
:2011e1000000000000000000000000000000000000000000000000000000000000000000ee
:201201000000000000000000000000000000000000000000000000000000000000000000cd
:201221000000000000000000000000000000000000000000000000000000000000000000ad
:0d12410000000000000000000000000000a0
:20124e00000000000000000000000000000000000000000000000000000000000000000080
:20126e00000000000000000000000000000000000000000000000000000000000000000060
:20128e00000000000000000000000000000000000000000000000000000000000000000040
:0d12ae000000000000000000000000000033
:2012bb00000000000000000000000000000000000000000000000000000000000000000013
:2012db000000000000000000000000000000000000000000000000000000000000000000f3
:2012fb000000000000000000000000000000000000000000000000000000000000000000d3
:0d131b0000000000000000e00000000000e5
:201328000000000000000000000000000000000000000000000000000000000000000000a5
:20134800000000000000000000000000000000000000000000000000000000000000000085
:20136800000000000000000000000000000000000000000000000000000000000000000065
:0d1388000000000000000000000000000058
:20139500000000000000000000000000000000000000000000000000000000000000000038
:2013b500000000000000000000000000000000000000000000000000000000000000000018
:2013d5000000000000000000000000000000000000000000000000000000000000000000f8
:0d13f50000000000000000000000000000eb
:201402000000000000000000000000000000000000000000000000000000000000000000ca
:20142200000000000000000000000000000000000004014000000000000000000000000065
:2014420000000000000000000000000000000000000000000000000000000000000000008a
:0d146200000000000000000000000000007d
:20146f0000000000000000000000000000000000000000000000000000000000000000005d
:20148f0000000000000000000000000000000000000c0080000000000000000000000000b1
:2014af0000000000000000000000000000000000000000000000000000000000000000001d
:0d14cf000000000000000000000000000010
:2014dc000000000000000000000000000000000000000000000000000000000000000000f0
:2014fc000000000000000000000000000000000000000000000000000000000000000000d0
:20151c000000000000000000000000000000000000000000000000000000000000000000af
:0d153c0000000000000000000000000000a2
:20154900000000000000000000000000000000000000000000000000000000000000000082
:20156900000000000000000000000000000000000000100c00000000000000000000000046
:20158900000000000000000000000000000000000000000000000000000000000000000042
:0d15a9000000000000000000000000000035
:2015b600000000000000000000000000000000000000000000000000000000000000000015
:2015d6000000000000000000000000000000000000020000000000000000000000000000f3
:2015f6000000000000000000000000000000000000000000000000000000000000000000d5
:0d16160000000000000010000000000000b7
:201623000000000000000000000000000000000000000000000000000000000000000000a7
:20164300000000000000000000000000000000000002000000000000000000000000000085
:20166300000000000000000000000000000000000000000000000000000000000000000067
:0d168300000000000000000000000000005a
:2016900000000000000000000000000000000000000000000000000000000000000000003a
:2016b00000000000000000000000000000000000000000000000000000000000000000001a
:2016d0000000000000000000000000000000000000000000000000000000000000000000fa
:0d16f00000000000000000000000000000ed
:2016fd000000000000000000000000000000000000000000000000000000000000000000cd
:20171d000000000000000000000000000000000000000000000000000000000000000000ac
:20173d0000000000000000000000000000000000000000000000000000000000000000008c
:0d175d00000000000000000000000000007f
:20176a0000000000000000000000000000000000000000000000000000000000000000005f
:20178a0000000000000000000000000000000000000000000000000000000000000000003f
:2017aa000000000004000000000000004000000000000000000000000000000000000004d7
:0d17ca000000000000000000000000000012
:2017d7000000000000000000000000000000000000000000000000000000000000000000f2
:2017f7000000000000000000000000000000000000000c3c0000000000000000000000008a
:201817000000000000000000000000000000000000000000000000000000000000000000b1
:0d18370000000000000000000000000000a4
:20184400000000000000000000000000000000000000000000000000000000000000000084
:201864000000000000000000000000000000000000000000016040000000000000000000c3
:20188400000000000000000000000000000000000000000000000000000000000000000044
:0d18a4000000000000002000000000000017
:2018b100000000000000000000000000000000000000000000000000000000000000000017
:2018d1000000000000000000000000000000000000000000000000000000000000000000f7
:2018f1000000000000000000000000000000000000000000000000000000000000000000d7
:0d19110000000000000000000000000000c9
:20191e000000000000000000000000000000000000000000000000000000000000000000a9
:20193e00000000000000000000000000000000000000000000000000000000000000000089
:20195e00000000000000000000000000000000000000000000000000000000000000000069
:0d197e00000000000000000000000000005c
:20198b0000000000000000000000000000000000000000000000000000000000000000003c
:2019ab0000000000000000000000000000000000000000000000000000000000000000001c
:2019cb000000000000000000000000000000000000000000000000000000000000000000fc
:0d19eb0000000000000000000000000000ef
:2019f8000000000000000000000000000000000000000000000000000000000000000000cf
:201a180000000000000000000000000000000000000080000000000000000000000000002e
:201a380000000000000000000000000000000000000000000000000000000000000000008e
:0d1a58000000000000000000000000000081
:201a6500000000000000000000000000000000000000000000000000000000000000000061
:201a8500000000000000000000000000000000000000000000000000000000000000000041
:201aa500000000000000000000000000000000000000000000000000000000000000000021
:0d1ac5000000000000000000000000000014
:201ad2000000000000000000000000000000000000000000000000000000000000000000f4
:201af20000000000000000000000000000000000000c0004000000000000000000000000c4
:201b12000000000000000000000000000000000000000000000000000000000000000000b3
:0d1b320000000000000000000000000000a6
:201b3f00000000000000000000000000000000000000000000000000000000000000000086
:201b5f0000000000000000000000000000000000000c00000000000000000000000000005a
:201b7f00000000000000000000000000000000000000000000000000000000000000000046
:0d1b9f000000000000000000000000000039
:201bac00000000000000000000000000000000000000000000000000000000000000000019
:201bcc000000000000000000000000000000000000001000000000000000000000000000e9
:201bec000000000000000000000000000000000000000000000000000000000000000000d9
:0d1c0c0000000000000000000000000000cb
:201c19000000000000000000000000000000000000000000000000000000000000000000ab
:201c390000000000000000000000000000000000000010000000000000000000000000007b
:201c590000000000000000000000000000000000000000000000000000000000000000006b
:0d1c7900000000000000000000000000005e
:201c860000000000000000000000000000000000000000000000000000000000000000003e
:201ca60000000000000000000000000000400000000a1000000000000000000000000000c4
:201cc6000000000000100000000000000000000000000000000000000000000000000000ee
:0d1ce60000000000000000000000000000f1
:201cf3000000000000000000000000000000000000000000000000000000000000000000d1
:201d1300000000000000000000000000000000000008100000000000000000000000000098
:201d3300000000000000000000000000000000000000000000000000000000000000000090
:0d1d53000000000000000000000000000083
:201d6000000000000000000000000000000000000000000000000000000000000000000063
:201d8000000000000000000000000000000000000000100000000000100000000000000023
:201da000000000000000000000000000000000000000000000000000000000000000000023
:0d1dc0000000000000000000000000000016
:201dcd000000000000000000000000000000000000000000000000000000000000000000f6
:201ded000000000000000000000000000000000000001000000000000000000000000000c6
:201e0d000000000000000000000000000000000000000000000000000000000000000000b5
:0d1e2d0000000000000000000000000000a8
:201e3a00000000000000000000000000000000000000000000000000000000000000000088
:201e5a00000000000000000000000000000000000000102400000000000000000000000034
:201e7a00000000000000000000000000000000000000400000000000000000000000000008
:0d1e9a00000000000000000000000000003b
:201ea70000000000000000000000000000000000000000000000000000000000000000001b
:201ec700000000000000000000000000000000000000101c000000000000000000000000cf
:201ee70000000000000000000000000000000000000040000000000000000000000000009b
:0d1f070000000000000000000000000000cd
:201f14000000000000000000000000000000000000000000000000000000000000000000ad
:201f3400000000000000000000000000000000000000000001600400100000000000000018
:201f540000000000000000000000000000000000000000000000000000000000000000006d
:0d1f74000000000000000000000000000060
:201f8100000000000000000000000000000000000000000000000000000000000000000040
:201fa100000000000000000000000000000000000000000000000000000000000000000020
:201fc100000000000000000000000000000000000000000000000000000000000000000000
:0d1fe10000000000000000000000000000f3
:201fee000000000000000000000000000000000000000000000000000000000000000000d3
:20200e000000000000000000000000000000000000000000000000000000000000000000b2
:20202e00000000000000000000000000000000000000000000000000000000000000000092
:0d204e000000000000000000000000000085
:20205b00000000000000000000000000000000000000000000000000000000000000000065
:20207b00000000000000000000000000000000000000000000000000000000000000000045
:20209b00000000000000000000000000000000000000000000000000000000000000000025
:0d20bb000000000000000000000000000018
:2020c8000000000000000000000000000000000000000000000000000000000000000000f8
:2020e8000000000000000000000000000000000000000000000000000000000000000000d8
:202108000000000000000000000000000000000000000000000000000000000000000000b7
:0d21280000000000000004000000000000a6
:2021350000000000000000000000000000000000000000000000000000000000000000008a
:2021550000000000000000000000000000000000000000000000000000000000000000006a
:2021750000000000000000000000000000000000000000000000000000000000000000004a
:0d219500000000000000020000000000003b
:2021a20000000000000000000000000000000000000000000000000000000000000000001d
:2021c2000000000008000000000000000000000000040000000000000000000000000000f1
:2021e2000000000000000000000000000000000000000000000000000000000000000000dd
:0d22020000000000000008000000000000c7
:20220f000000000000000000000000000000000000000000000000000000000000000000af
:20222f0000000000000000000000000000000000000c000000000000000000000000000083
:20224f0000000000000000000000000000000000000000000000000000000000000000006f
:0d226f000000000000000000000000000062
:20227c00000000000000000000000000000000000000000000000000000000000000000042
:20229c00000000000000000000000000000000000000000000000000000000000000000022
:2022bc00000000000000000000000000000000000000000000000000000000000000000002
:0d22dc0000000000000000000000000000f5
:2022e9000000000000000000000000000000000000000000000000000000000000000000d5
:202309000000000000000000000000000000000000001000000000000000000000000000a4
:20232900000000000000000000000000000000000000000000000000000000000000000094
:0d2349000000000000000000000000000087
:20235600000000000000000000000000000000000000000000000000000000000000000067
:2023760000000000000000000000000000000000000a001e0000000000000000000000001f
:20239600000000000000000000000000000000000000000000000000000000000000000027
:0d23b600000000000000000000000000001a
:2023c3000000000000000000000000000000000000000000000000000000000000000000fa
:2023e30000000000000000000000000000000000000a0002000000000000000000000000ce
:202403000000000000000000000000000000000000000000000000000000000000000000b9
:0d24230000000000000000000000000000ac
:2024300000000000000000000000000000000000000000000000000000000000000000008c
:2024500000000000000000000000000000000000000000000000000000000000000000006c
:2024700000000000000000000000000000000000000000000000000000000000000000004c
:0d249000000000000000000000000000003f
:20249d0000000000000000000000000000000000000000000000000000000000000000001f
:2024bd000000000000000000000000000000000000000000000000000000000000000000ff
:2024dd000000000000000000000000000000000000000000000000000000000000000000df
:0d24fd0000000000000000000000000000d2
:20250a000000000000000000000000000000000000000000000000000000000000000000b1
:20252a00000000000000000000000000000000000001000000000000000000000000000090
:20254a00000000000000000000000010000000000000000000000000000000000000000061
:0d256a000000000000000000000000000064
:20257700000000000000000000000000000000000000000000000000000000000000000044
:20259700000000000000000000000000000000000001000000000000000000000000000023
:2025b7000000000000000000000000100000000000000000000000000000000000000000f4
:0d25d70000000000000000000000000000f7
:2025e4000000000000000000000000000000000000000000000000000000000000000000d7
:202604000000000000000000000000002000000000000000006040000000000000000000f6
:20262400000000000000000000000000000000000000000000000000000000000000000096
:0d2644000000000000000000000000000089
:20265100000000000000000000000000000000000000000000000000000000000000000069
:202671000000000000000000000000005000000000000000000000000000000000000000f9
:20269100000000000000000000000000000000000000000000000000000000000000000029
:0d26b100000000000000000000000000001c
:2026be000000000000000000000000000000000000000000000000000000000000000000fc
:2026de000000000000000000000000000000000000000000000000000000000000000000dc
:2026fe000000000000000000000000000000000000000000000000000000000000000000bc
:0d271e0000000000000000000000000000ae
:20272b0000000000000000000000000000000000000000000000000000000000000000008e
:20274b0000000000000000000000000000000000000000000000000000000000000000006e
:20276b0000000000000000000000000000000000000000000000000000000000000000004e
:0d278b000000000000000000000000000041
:20279800000000000000000000000000000000000000000000000000000000000000000021
:2027b800000000000000000000000000000000000000000e000000000000000000000000f3
:2027d8000000000000000000000000000000000000000000000000000000000000000000e1
:0d27f80000000000000000000000000000d4
:202805000000000000000000000000000000000000000000000000000000000000000000b3
:20282500000000000000000000000000000000000000000200000000000000000000000091
:20284500000000000000000000000000000000000000000000000000000000000000000073
:0d2865000000000000000000000000000066
:20287200000000000000000000000000000000000000000000000000000000000000000046
:2028920000000000000000000000000000000000000c000400000000000000000000000016
:2028b200000000000000000000000000000000000000000000000000000000000000000006
:0d28d20000000000000000000000000000f9
:2028df000000000000000000000000000000000000000000000000000000000000000000d9
:2028ff0000000000000000000000000000000000000c0002000000000000000000000000ab
:20291f00000000000000000000000000000000000000000000000000000000000000000098
:0d293f00000000000000000000000000008b
:20294c0040000000000000000000000000000000000000000000000000000000000000002b
:20296c000000000000000000000000000000000000001000000000000000000000000080bb
:20298c0000000000000000000000000000000000000000000000000000000000000000002b
:0d29ac00000000000000000000000000001e
:2029b9000000000000000000000000000000000000000000000000000000000000000000fe
:2029d90000000000000000000000000000000000000010000000000000000000000000408e
:2029f9000000000000000000000000000000000000000000000000000000000000000000be
:0d2a190000000000000000000000000000b0
:202a260000000000000000000000000000000000000000000000000c000000000000000084
:202a460000000000000000000000000000000000000a100000000000000000000000000056
:202a6600000000000000000000000000000000000000000000000000000000000000000050
:0d2a86000000000000000000000000000043
:202a93008000000000000000000000000000000000000000000000000000000000000000a3
:202ab3000000000000000000000000000000000000081000000000000000000000000000eb
:202ad3000000000000000000000000000000000000000000000000000000000000000000e3
:0d2af30000000000000000000000000000d6
:202b0000440000000000000000000000000000000000000000000000000000000000000071
:202b2000000000000000000000000000000000000000100000000000000000000000000085
:202b40000000000000000000000000100000000000000000000000000000800000000000e5
:0d2b60000000000000000000000000000068
:202b6d00080000000000000000000000000000000000000000000000000000000000000040
:202b8d00000000000000000000000000000000000000100000000000000000000000000018
:202bad000000000000000000000000000000000000000000000000000000400000000000c8
:0d2bcd0000000000000000000000000000fb
:202bda000000000000000000000000000000000000000000000000000000000000000000db
:202bfa000000000000000000000000000000000000011004000000000000000000000000a6
:202c1a0000000000000000000000000000000000000000000000000000000000000000009a
:0d2c3a00000000000000000000000000008d
:202c470000000000000000000000000000000000000000000000000000000000000000006d
:202c670000000000000000000000000000000000000110020000000000000000000000003a
:202c870000000000000000000000000000000000000000000000000000000000000000002d
:0d2ca7000000000000000000000000000020
:202cb400007000000000000000000000000000000000000000000000000000000000000090
:202cd400000000000000000000000000000000000000000078c04000000000000000000068
:202cf4000000000000000000000000000000000000000000000000000000000000000000c0
:0d2d140000000000000000000000000000b2
:202d2100000000000000000000000000000000000000000000000000000000000000000092
:202d4100000000000000000000000000000000000000000000200000000000000000000052
:202d6100000000000000000000000000000000000000000000000000000000000000000052
:0d2d81000000000000000000000000000045
:202d8e004400000000000000000000000000000000000000000000000000000000000000e1
:202dae000000000000000000000000400000000000000000000000000000000000000000c5
:202dce000000000000000000000000000000000000000000000000000000000000000000e5
:0d2dee0000000000000000000000000000d8
:202dfb000c300000000000000000000000000000000000000000000000000000000000007c
:202e1b00000000000000000000000000000000000000000000000000000000000000000097
:202e3b0000000000002800000000000000000000000000000000000000000000000000004f
:0d2e5b00000000000000004000000000002a
:202e680000000000000000000000000000000000000000000000000000000000000000004a
:202e8800000000000008000000000000000000000000000000000000000000000000000022
:202ea80000000000000000000000000000000000000000000000000000000000000000000a
:0d2ec80000000000000000000000000000fd
:202ed50080000000000000000000000000000000000000000000000000000000000000005d
:202ef5000000000000140000000000000000000000000000000000000000000000000000a9
:202f150000000000000000000000000000000000000000000000000000000000000000009c
:0d2f3500000000000000000000000000008f
:202f420040000000000000000000000000000000000000000000000000000000000000002f
:202f620000000000000000000000000000000000000400400000000000000000000000000b
:202f820000000000000000000000000000000000000000000000000000000000000000002f
:0d2fa2000000000000000000000000000022
:202faf00000000000000000000000000000000000000000000000000000000000000000002
:202fcf0000000000000000000000000000000000000c0000000000000000000000000000d6
:202fef000000000000000000000000000000000000000000000000000000000000000000c2
:0d300f0000000000000000000000000000b4
:20301c00000000000000000000000000000000000000000000000000000000000000000094
:20303c00000000000000000000000000000000000000000030000000000000000000000044
:20305c00000000000000000000000000000000000000000000000000000000000000000054
:0d307c000000000000000000000000000047
:20308900000000000000000000000000000000000000000000000000000000000000000027
:2030a9000000000000000000000000000000000000001000000000000000000000000000f7
:2030c9000000000000000000000000000000000000000000000000000000000000000000e7
:0d30e90000000000000000000000000000da
:2030f6000000000000000000000000000000000000000000000000000000000000000000ba
:20311600000000000000000000000000000000000002000000000000000000000000000097
:20313600000000000000000000000000000000000000000000000000000000000000000079
:0d315600000000000000000000000000006c
:2031630000000000000000000000000000000000000000000000000000000000000000004c
:2031830000000000000000000000000000000000000a000000000000000000000000000022
:2031a300000000000000000000000000000000000000000000000000000000000000000408
:0d31c30000000000000000000000000000ff
:2031d0000000000000000000000000000000000000000000000000000000000000000000df
:2031f000000000000000000000000040000000000000001e00000000000000000000000061
:2032100000000000000000000000001000000000000000000000000000000000000000048a
:0d3230000000000000000000000000000091
:20323d00000000000000000000000000000000000000000000000000000000000000000071
:20325d00000000000000000000000040000000000000000000000000000000000000000011
:20327d0000000000000000000000001000000000000000000000000000000000000000041d
:0d329d000000000000000000000000000024
:2032aa00000000000000000000000000000000000000000000000000000000000000000004
:2032ca000000000000000000000000400000000000000000000000000000000000000000a4
:2032ea00000000000000000000000000000000000000400000000000000000000000000480
:0d330a0000000000000000000000000000b6
:20331700000000000000000000000000000000000000000000000000000000000000000096
:20333700000000000000000000000000000000000000040000000000000000000000000072
:20335700000000000000000000000000000000000000400000000000000000000000000016
:0d3377000000000000000000000000000049
:20338400000000000000000000000000000000000000000000000000000000000000000029
:2033a4000000000000000000000000000000000000000000004010000000000000000000b9
:2033c4000000000000000000000000000000000000000000000000000000000000000000e9
:0d33e40000000000000000000000000000dc
:2033f1000000000000000000000000000000000000000000000000000000000000000000bc
:2034110000000000000000000000000000000000000000000020000000000000000000007b
:2034310000000000000000000000000000000000000000000000000000000000000000007b
:0d345100000000000000000000000000006e
:20345e0000000000000000000000000000000000000000000000000000000000000000004e
:20347e0000000000000000000000000000000000000000000000000000000000000000002e
:20349e0000000000000000000000000000000000000000000000000000000000000000000e
:0d34be000000000000000000000000000001
:2034cb000000000000000000000000000000000000000000000000000000000000000000e1
:2034eb0000000000000000000000000000000000000000000000000280000000000000003f
:20350b000000000000000000000000000000000000000000000000000000000000000000a0
:0d352b000000000000000000000000000093
:20353800000000000000000000000000000000000000000000000000000000000000000073
:20355800000000000000000000000000000000000000400000000000000000000000000013
:20357800000000000000000000000000000000000000000000000000000000000000000033
:0d3598000000000000000000000000000026
:2035a500000000000000000000000000000000000000000000000000000000000000000006
:2035c5000000000000000000000000000000000000004000000000000000000000000000a6
:2035e5000000000000000000000000000000000000000000000000000000000000000000c6
:0d36050000000000000000000000000000b8
:20361200000000000000000000000000000000000000000000000000000000000000000098
:2036320000000000000000000000000000000000000c000400000000000000000000000068
:20365200000000000000000000000000000000000000000000000000000000000000000058
:0d367200000000000000000000000000004b
:20367f0000000000000000000000000000000000000000000000000000000000000000002b
:20369f0000000000000000000000000000000000000c0000000000000000000000000000ff
:2036bf000000000000000000000000000000000000000000000000000000000000000000eb
:0d36df0000000000000000000000000000de
:2036ec000000000000000000000000000000000000000000000000000000000000000000be
:20370c0000000000000000000000000000000000000010000000000000000000000000008d
:20372c0000000000000000000000000000000000000000000000000000000001eefa000094
:0d374c00000407225b0000000000000000e8
:20375900000000000000000000000000000000000000000000000000000000000000000050
:20377900000000000000000000000000000000000000100000000000000000000000000020
:203799000000000000000000000000000000000000000000000000000000000010fa000006
:0d37b9000000b002580800000000000000f1
:2037c6000000000000000000000000000000000000000000000000000000000000000000e3
:2037e60000000000020000000000000000000000000a1000000000000000000000000000a7
:2038060000000000000000000000000000000000000010000000000000000001fadf02288e
:0d382600000007225b000000000000000011
:20383300000000000000000000000000000000000000000000000000000000000000000075
:20385300000000000400000000000000000000000008100000000000000000000000000039
:2038730000000000000000000000000000000000000008000000000000000001d0ff0060fd
:0d38930000000002580000000000000000ce
:2038a000000000000000000000000000000000000000000000000000000000000000000008
:2038c000000000000000000000000000000000000000100000000000400000000000000098
:2038e0000000000000000000000000000000000000000000000000000000000000000010b8
:0d390000000195225b0000000000000000a7
:20390d0000000000000000000000000000000000000000000000000000000000000000009a
:20392d0000000000000000000000000000000000000010000000000000000000000000006a
:20394d0000000000000000000000000000000000000000000000000000000000000000104a
:0d396d0000008082580000000000000000f3
:20397a0000000000000000000000000000000000000000000000000000000000000000002d
:20399a00000000000000000000000000000000000000101c000000000000000000000000e1
:2039ba00000000000000000000000000080000000000000000000000000000600000000085
:0d39da00001805225b000000000000000046
:2039e7000000000000000000000000000000000000000000000000000000000000000000c0
:203a070000000000000000000000000000000000000010020000000000000000000000008d
:203a270000000000000000000000000010000000000000000000000000000000000000006f
:0d3a47000000008258000000000000000098
:203a5400000000000000000000000000000000000000000000000000000000000000000052
:203a7400000000000000000000000000000000000000000070c040001000000000000000b2
:203a9400000000000000000000000000000000000000000000000000000000000000000012
:0d3ab400000007a25b000000000000000001
:203ac1000000000000000000000000000000000000000000000000000000000000000000e5
:203ae100000000000000000000000000000000000000000040200000000000000000000065
:203b01000000000000000000000000000000000000000000000000000000000000000000a4
:0d3b2100000000025800000000000000003d
:203b2e00000000000000000000000000000000000000000000000000000000000000000077
:203b4e00000000000000000000000000000000000000100000000000000000000000000047
:203b6e00000000000000000000000000000000000000000000000000000000000000000037
:0d3b8e00400005a2590000000000000000ea
:203b9b0000000000000000000000000000000000000000000000000000000000000000000a
:203bbb000000000000000000000000000000000000000000000000000000000000000000ea
:203bdb000000000000000000000000000000000000000000000000000000000000000000ca
:0d3bfb000000000258000a00000000000059
:203c080000000000000000000000000000000000000000000000000000000000000000009c
:203c280000000000000000000000000000000000000000000000000000000000000000007c
:203c48000000000000000000000000000000000000000000000000000000366c1e0f01008c
:0d3c680000980000000000000000000000b7
:203c750000000000000000000000000000000000000000000000000000000000000000002f
:203c950000000000000000000000000000000000000000000000000000000000000000000f
:203cb50000000000000000000000000000000000000000000000000000001428100f000094
:0d3cd50000100000000000000000000000d2
:203ce2000000000000000000000000000000000000000000000000000000000000000000c2
:203d020000000000000000000000000000000000000400000000000000000000000000009d
:203d220000000000000000000000000000000000000000000000000000003601cea00030ac
:0d3d420000b00000000008000000000000bc
:203d4f00000000000000000000000000000000000000000000000000000000000000000054
:203d6f0000000000000000000000000000000000000c000000000000000000000000000028
:203d8f000000000000000000000000000000000000000000000000000000143c10a00030e4
:0d3daf0000180000000000000000000000ef
:203dbc000000000000000000000000000000000000000000000000000000000000000000e7
:203ddc000000000000000000000000000000000000000000000000000000000000000000c7
:203dfc0001c896c000000015225a000000000000000000000000000000000001c896c08058
:0d3e1c000080003bc100000000000000001d
:203e2900000000000000000000000000000000000000000000000000000000000000000079
:203e4900000000000000000000000000000000000000100000000000000000000000000049
:203e690000009602000000a002580c00000000000000000000000000000000000096020003
:0d3e890000100003c0000000000000000059
:203e960000000000000000000000000000000000000000000000000000000000000000000c
:203eb60000000000000000000000000000000000000a00000000028000000000000a000056
:203ed60001c896c000000015265a00000000000000028008000000000a000001c896d0a8ad
:0d3ef60000d80138000200a000000000000c
:203f030000000000000000000000000000000000000000000000000000000000000000009e
:203f230000000000000000000000000000000000000a00000000020000000000000800006a
:203f430000009600000800a03e5801000000000000020007000000000800000000960024be
:0d3f630000500700140000000000000000e6
:203f7000000000000000000000000000000000000000000000000000000000000000000031
:203f90000000000000000000000000000000000000000000000000000000732bc00c0000a7
:203fb000654896c00000d9a7a25a8010020000000000000000000000000000654896d08449
:0d3fd0000001a038140000000000000000f7
:203fdd000000000000000000000000000000000000000000000000000000000000000000c4
:203ffd00000000000000000000000000000000000000000000000000000b042bc00c00009e
:20401d002020960000005000a658001003c0000000000000000000000000002020960000b6
:0d403d00000001002800000000000000004d
:20404a00000000000000000000000000000000000000000000000000000000000000000056
:20406a000000000000000000000000000000000000010000000000000000330014a0000648
:20408a00054896c00000d9a5225a80000000000000000000009f1688100006054896c00003
:0d40aa00000009abd4000000000000000081
:2040b7000000000000000000000000000000000000000000000000000000000000000000e9
:2040d7000000000000000000000000000000000000010000000000000000d80100000000ef
:2040f700202096000000500082580000000000000000000b00543d400002002020960000f5
:0d41170001000143fc00000000000000005a
:2041240000000000000000000000000000000000000000000000000000000000000000007b
:20414400000000000000000000000000000000000000000001e00400081b00000000000053
:2041640001e896c000000005a25a010000000000000000000000000000000001e896c000bb
:0d418400000000000000000000000000002e
:2041910000000000000000000000000000000000000000000000000000000000000000000e
:2041b100000000000000000000000000000000000000000000000000050a000000000000df
:2041d100000096000000000002580000000000000000000000000000000000000096000048
:0d41f10000000000000000000000000000c1
:2041fe000000000000000000000000000000000000000000000000000000000000000000a1
:20421e0000000000000000000000000000000000000010000000000400000000000010005c
:20423e00016896c000000005a65a010100000005a100040001000000001000016896c00020
:0d425e004000000000000000000000000013
:20426b00000000000000000000000000000000000000000000000000000000000000000033
:20428b00000000000000000000000000000000000000000000000000000000000000000013
:2042ab0000009600000500003e5800000000140a50000000080000000000000000960000b6
:0d42cb0000000000000000000000000000e6
:2042d8000000000000000000000000000000000000000000000000000000000000000000c6
:2042f800000000000000000000000000000000000000000e00000000000000000000002672
:20431800796896c000000007a65a0000001000000000000000802950000026016896c00059
:0d43380000980000000000000000000000e0
:20434500000000000000000000000000000000000000000000000000000000000000000058
:2043650000000000000000000000000000000000000000020000000005000000000000042d
:204385000020960000000000a65804000000000000000000001016800000040020960800f8
:0d43a50000d8000000000000000000000033
:2043b2000000000000000000001000000000000000000000000000000000000000000000db
:2043d20000000000000000000000000000000000000c00240000004000000000000c003e11
:2043f20061e896c000000005a65a80000000000000000040000000000c002e61e896c0006e
:0d441200000000000000000000000000009d
:20441f0000000000000000000010000000000000000000000000000000000000000000006d
:20443f0000000000000000000000000000000000000c000e0000004000000000000c0006f1
:20445f000020960000000090be5800001000000000000000000000000c40040020960000cb
:0d447f000000000000000000000000000030
:20448c00000000000000000000000000000000000000000000000000000000000000000010
:2044ac0000000000000000000000000000000000000010000000000009815e3d400000007b
:2044cc0001489640003800050002000000001de250000000181225a400000001c896d00001
:0d44ec002081c00000000000000000000062
:2044f90000000000000000000000000000000000000000000000000800000000000000009b
:204519000000000000000000000000000000000000001000000000000189083d4000000063
:2045390000009604000090002000100000001fce50000000100825808000000000960400f4
:0d4559000051a00000000000000000000064
:20456600000000000000000000000000000000000000000000000000000000000000000035
:2045860000000000000000000000000000000000000a181e000000000198b6a8488a00000c
:2045a6000000000000008009a0000200c2000cea00000008191a65a42a000001c8964028dd
:0d45c6000000012bd40000000000000000e8
:2045d3000000000000000000000000000000000000000000000000000000000000000000c8
:2045f300000000000000000000000000000000000008100000000000009094000008000064
:20461300000000000200f00b3c80040003401e00000000091903658008001c000096102075
:0d46330000000003d4000020000000000083
:2046400000000000000000000000000000000000000000000000000000000000000000005a
:2046600000000000000000000000000000000000000010800000000009985e3dc00400208a
:2046800038000000000080000000000000005fe250204000003a65a0200000000000001002
:0d46a0000058a3fb9c8800000000000000f3
:2046ad000000000000000000000000000000000000000000000000000000000000000000ed
:2046cd00000000000000000000000000000000000000110000000000099016bfc00c00047e
:2046ed004000000000005000000000000003bd0e50000000000aa5800000000000000010c0
:0d470d0000000dc38c000000000000000043
:20471a0000000000000000000000000000000000000000000000000000000000000000007f
:20473a000000000000000000000000000000000000001000000000400819000000000000ee
:20475a0000000000000000000000000000000cea00000001801a65a00000000000000000a9
:0d477a000000003aa98000000000000000cf
:20478700000000000000000000000000000000000000000000000000000000000000000012
:2047a700000000000000000000000000000000000000100000000040090900000000000090
:2047c7000000000000000000000000000000000a00000000800b65800080000000000000d8
:0d47e7000000094154000000000000000027
:2047f4000000000000000000000000000000000000000000000000000000000000000000a5
:20481400000000000000000000000000000000000000000000600400080000000000000018
:204834000000000000000000000000000a005de250200008001a25a00000000000000000c4
:0d4854000000000000000000000000000057
:20486100000000000000000000000000000000000000000000000000000000000000000037
:20488100000000000000000000000000000000000000000000000000050000000000000012
:2048a10000000000000000000000000006427f0da0000005000825800000000000000000d1
:0d48c10000000000000000000000000000ea
:2048ce000000000000000000000000000000000000000000000000000000000000000000ca
:2048ee000000000000000000000000000000000000000000000000000000000000000000aa
:20490e0000000000000001a0000000000006ace550000000083265a00000000000000000c2
:0d492e0000018000000000000000000000fb
:20493b0000000000000000000000000000000000000000000000000000000000000000005c
:20495b00000000000000000000000000000000000000000000000000000000000000002418
:20497b000000000000100000000000000003fc0f0000000010036580008000000000000086
:0d499b00000100000000000000000000000e
:2049a8000000000000000000000000000000000000000000000000000000000000000000ef
:2049c800000000000000000000000000000000000000000000000000000012a80000000015
:2049e800000000000000001000000000026641e550000005803a3c000000260000000000a0
:0d4a08000001800000000000000000000020
:204a1500000000000000000000000000000000000000000000000000000000000000000081
:204a3500000000000000000000000000000000000000000000000000000000280000000039
:204a550000000000000000f00000000002664d0aa0000000007803c00000040000000000b3
:0d4a75000000000000000000000000000034
:204a8200000000000000000000000000000000000000000000000000000000000000000014
:204aa20000000000000000000000000000000000000d004e000000000000d229408c0000d2
:204ac200000000000000000000000000020047da50000000005e704004000000000000004f
:0d4ae20000001000000000000000000000b7
:204aef000000000000000000000000000000000000000000000000000000000000000000a7
:204b0f0000000000000000000000000000000000000d00000000000000005c148004000085
:204b2f000000000000000000000000000242b5d400000000009270c00420000000000000b3
:0d4b4f0000009000000000a0000000000029
:204b5c004000000000000000000000000000000000000000000000000000000000000000f9
:204b7c000000000000000000000000000000000000000000680000000000000000000000b1
:204b9c0000000000000000000000000000002fe000000000017025a40000000000000000b0
:0d4bbc0000000000000000000000000000ec
:204bc9000000000000000000000000000000000000000000000000000000000000000000cc
:204be90000000000000000000000000000000000000010004000000000000000000000005c
:204c090000000000000000000000000000003de8008000000f02e580000000000000000070
:0d4c2900000000000000000000000000007e
:204c360000000000000000000000000000000000000000000000000000000000000000005e
:204c5600000000000000000000000000000000000002a0000000000000000000000000009c
:204c76000000000000000000000000a00000000e70040000001a25a4200000680000000091
:0d4c96000000000000000000000000000011
:204ca300800000000000000000000000000000000000000000000000000000000000000071
:204cc30000000000000000000000000000000000000a0000000000000000000000000000c7
:204ce30000000000000000000000008002425cfdb00000050002a5800000000000000000b8
:0d4d030000000000000000000000000000a3
:204d10004c68000000000000000000000000000000000000000000000000000000000000cf
:204d3000000000000000000000000040000000000000001e00000000000000000000000005
:204d500000000000003000000000000408003cf0840000080a3265a06000400379000100f1
:0d4d70000000000000000000000000000036
:204d7d000c40000000000000000000000000000000000000000000000000000000000000ca
:204d9d000000000000000000000000400000000000000000000000000000000000000000b6
:204dbd00000000000000000000000002140026800010000f0002a580000000017f01010052
:0d4ddd0000000000000000000000000000c9
:204dea000000000000000000000000000000000000000000000000000000000000000000a9
:204e0a00000000000000000000000000000000000000000000000040000000000000000048
:204e2a000000000000000000000000000000000a54000005013a65a4400156040000000026
:0d4e4a00000000000000100000000000004b
:204e570000000000000000000000000000000000000000000000000000000000000000003b
:204e77000000000000000000000000000000000000000000000000400000000000000000db
:204e970000000000000000000000000000003c05a00400090e0aa5800000002800000000a8
:0d4eb70000000000000000000000000000ee
:204ec4000000000000000000000000000000000000000000000000000000000000000000ce
:204ee40000000000000000000000000000000000000000000040400000000000000000002e
:204f0400000000000002000000000000e0002fe800100009003a25a020000000000000005c
:0d4f24000000000000002000000000000060
:204f3100000000000000000000000000000000000000000000000000000000000000000060
:204f5100000000000000000000000000000000000000000000200000000000000000000020
:204f710000000000000400000000000000003de0000000098002658000000000000000008f
:0d4f91000000000000000000000000000013
:204f9e004800000000000000000000000000000000000000000000000000000000000000ab
:204fbe000000000000000000000000000000000000000000000000000000000000010000d2
:204fde000000000000000000000000000160018f04000001813265a0000000000000000005
:0d4ffe0000000000000000000000000000a6
:20500b0008000000000000000000000000000000000000000000000000000000000000007d
:20502b00000000000000000000000000000000000000000000000000000000000001000064
:20504b000000000000000000000000000010010f0004000f8902e580000000000000000022
:0d506b000000000000000000000000000038
:20507800000000000000000000000000000000000000000000000000000000000000000018
:205098000000000000000000000000000000000000000000000000000000000000000000f8
:2050b80000000000000000000000000000600000000000081d7a65a00000000000000000d4
:0d50d80000000000000000000000000000cb
:2050e50080000000000000000000000000000000000000000000000000000000000000002b
:2051050000000000000000000000000000000000000040000000000000000000000000004a
:205125000000000000000000000000000262400000000007190325800000000000000000fe
:0d514500000000000000000000000000005d
:205152004028000000000000000000000000000000000000000000000000000000000000d5
:2051720000000000100000000000000000000000000d0004000000000000000000000000fc
:205192000000000000000000000000040006fdf00100000800723c0400000020000000002b
:0d51b20000000000000000000000000000f0
:2051bf00004000000000000000000000000000000000000000000000000000000000000090
:2051df0000000000100000000000000000000000000d000000000002800000000000000011
:2051ff000000000000000000000000020002bdc20000000900f803c0000000000000000049
:0d521f000000000000000000000000000082
:20522c00000000000000000000000000000000000000000000000000000000000000000062
:20524c00000000000000000000000000000000000000100000000000000000000000000032
:20526c00000000000000000000000000000000000000000000de0002000000000000000042
:0d528c000000000000000000000000000015
:205299000000000000000000000000000000000000000000000000000000000000000000f5
:2052b9000000000000000000000000000000000000001000000000000000000000000000c5
:2052d900000000000000000000000000000000000000000d005f50004000000000000000b9
:0d52f90000000000000000000000000000a8
:20530600000000000000000000000000000000000000000000000000000000000000000087
:2053260000000000000000000000000000000000000a100000000028000000000000000025
:205346000000000000000000000000a000060000000280000a000000000000000000000015
:0d536600000000000000000000000000003a
:2053730000000000000000000000000000000000000000000000000000000000000000001a
:205393000000000000000000000000000000000000081000000000000000000000000000e2
:2053b300000000000000000000000080000400000002000000000000000000000000000054
:0d53d30000000000000000000000000000cd
:2053e0000000000000000000000000000000000000000000000000000000000000000000ad
:2054000000000000000000000000000000000000000010000000000000000000000000007c
:20542000000000000000000000000000000000000000000000de000020000000000000006e
:0d544000000000000000000000000000005f
:20544d0000000000000000000000000000000000000000000000000000000000000000003f
:20546d0000000000000000000000000000000000000010800000000000000000000000008f
:20548d000000000000000000000000000000000000000000005f40800000000000000000e0
:0d54ad0000000000000000000000000000f2
:2054ba000000000000000000000000000000000000000000000000000000000000000000d2
:2054da00000000000200000000000000000000000000101c0000002800000000000000005c
:2054fa000000000000000000000000006867c00000000005000000000000000000000000fe
:0d551a000004000000000000000000000080
:20552700000000000000000000000000000000000000000000000000000000000000000064
:205547000000000004000000000000000000000000001c0200000010000000000000000012
:2055670000000000000000000000000000264000000000000a0000000000000000000000b4
:0d5587000000000000000000000000000017
:205594000000000000000000000000000000000000000000000000000000000000000000f7
:2055b400000000000400000000000000000000000000000001e040001000000000000000a2
:2055d4000000000000000000000000000000000000000000010000000000000000000000b6
:0d55f40000000000000000000000000000aa
:20560100000000000000000000000000000000000000000000000000000000000000000089
:20562100000000000a0000000000000000000000000000000020000000000000000000003f
:2056410000000000000000000000000000028000000000000e0000000000000000000000b9
:0d566100000000000000000000000000003c
:20566e0000000000000000000000000000000000000000000000000000000000000000001c
:20568e000000000000000000000000000000000000000000000000000000000000000000fc
:2056ae00000000000000000000000000000000cf0400000000102950000000000000000080
:0d56ce0000000000000000000000000000cf
:2056db000000000000000000000000000000000000000000000000000000000000000000af
:2056fb0000000000000000000000000000000000000000000000000000000000000000008f
:20571b000000000000000000000000000000010f00000000000029400000000000000000f5
:0d573b000000000000000000000000000061
:20574800000000000000000000000000000000000000000000000000000000000000000041
:20576800000000000000000000000000000000000000000000000000000000000000000021
:20578800000000000030000000000000000037902008000000de00002000000000000000e4
:0d57a80000000000000000000000000000f4
:2057b5001000000000000000000000000000000000000000000000000000000000000000c4
:2057d5000000000000000000000000000000000000000000000000000000000000000000b4
:2057f500000000000000000000000000000017b001000000005f6008000000000000000005
:0d5815003000000000000000000000000056
:20582200000000000000000000000000000000000000000000000000000000000000000066
:20584200000000000000000000000000000000000004014000000000000000000000000001
:2058620000000000000000000000000000000000000008000000000000000000000000001e
:0d5882000000000000000800000000000011
:20588f000000000000000000000000000000000000000000000000000000000000000000f9
:2058af0000000000000000000000000000000000000c00803c000000000000000000000011
:2058cf000000000000000000000000000000000000001000000000000000000000000000a9
:0d58ef0000000000000000000000000000ac
:2058fc0000000000000000000000000000000000000000000000000000000000000000008c
:20591c0000000000000000000000000000000000000000000000000000000000000000006b
:20593c000000000000000000000000000000000000020000001f58d0000000000000000002
:0d595c00000000000000000000000000003e
:2059690000000000000000000000000000000000000000000000000000000000000000001e
:205989000000000000000000000000000000000000001000000000000000000000000000ee
:2059a900000000000000000000000000000000000000000000dab0c2000080000000000012
:0d59c90000709000000000000000000000d1
:2059d6000000000000000000000000000000000000000000000000000000000000000000b1
:2059f60000000000000000000000000000000000000a000000000000000000000000000087
:205a160000000000000000000000000000000000000280001cda8150000000000000000027
:0d5a36000080017bd400a401c0000000002e
:205a4300000000000000000000000000000000000000000000000000000000000000000043
:205a6300000000000000000000000000000000000002000000000000000000000000000021
:205a83000000000000000000000000000000000000020000103c3d42000000000000000036
:0d5aa30000d0074280042a0020000000000f
:205ab0000000000000000000000000000000000000000000000000000000000000000000d6
:205ad0000000000000000000000000000000000000000000000000000000000000000000b6
:205af00000000000000000000000000000000000000000000e07155200000000000000001a
:0d5b10000000800000000000078000000081
:205b1d00000000000000000000000000000000000000000000000000000000000000000068
:205b3d00000000000000000000000000000000000000000000000000000000000000000048
:205b5d00000000000000000000000000000000000000000000d02a800000000000000000ae
:0d5b7d000001000000000002c00000000058
:205b8a000000000000000000000000000000000000000000000000000000000000000000fb
:205baa000000000000000000000000000000000000000000040000000000000000000000d7
:205bca0000000000000000000000000000000000000040051c0283d2000000000000000003
:0d5bea000000000000000001c695cd500035
:205bf70000000000000000000000000000000000000000000000000000000000000000008e
:205c170000000000000000000000000000000000000000003c000000000000000000000031
:205c37000000000000000000000000000000000000000000100403c0000000000000000076
:0d5c57000000000000000000000ead000085
:205c6400000000000000000000000000000000000000000000000000000000000000000020
:205c840000000000000000000000000000000000000000000160400000000000000000005f
:205ca4000000000000000000000000000000000000000000000000000000000000000000e0
:0d5cc4000000000000000003e01d8c102017
:205cd1000000000000000000000000000000000000000000000000000000000000000000b3
:205cf100000000000000000000000000000000000000001c00200000000000000000000057
:205d1100000000000000000000000000000000000000000000000000000000000000000072
:0d5d31000000000000000000e0360e6000e1
:205d3e00000000000000000000000000000000000000000000000000000000000000000045
:205d5e00000000000000000000000000000000000000000000000000000000000000000025
:205d7e00000000000000000000000000000000000000000180000000000000000000000084
:0d5d9e0000780000000000020017ad143076
:205dab000000000000000000000000000000000000000000000000000000000000000000d8
:205dcb00000000000000000000000000000000000000000000000002800000000000000036
:205deb00000000000000000000000000000000000000000780000000000000000000000011
:0d5e0b000010000000000003c0010d100099
:205e180000000000000000000000000000000000000000000000000000000000000000006a
:205e380000000000000000000000000000000000000000000000000000000000000000004a
:205e580000000000000000000000000000000000000000000000000000000000000000002a
:0d5e780000000bbf540000000000000000ff
:205e85000000000000000000000000000000000000000000000000000000000000000000fd
:205ea5000000000000000000000000000000000000000000000000000000000000000000dd
:205ec50000000000000000000000000000000000000020000000000000000000000000009d
:0d5ee50000b0013340000004020000000086
:205ef200000000000000000000000000000000000000000000000000000000000000000090
:205f120000000000000000000000000000000000000c00040000000000000000000000005f
:205f320000000000000000000000000000000000000300000000000000000000000000004c
:0d5f520000048d2304080000000000000082
:205f5f00000000000000000000000000000000000000000000000000000000000000000022
:205f7f0000000000000000000000000000000000000c0002000000000000000000000000f4
:205f9f000000000000040000000000000000000000010000000000000000000000000000dd
:0d5fbf00010003c398000000000000000076
:205fcc000000000000000000000000000000000000000000000000000000000000000000b5
:205fec00000000000000000000000000000000000000100070000000000000000000000015
:20600c0000000000000000000000002000060dea000000000a12a040000c00601cf04000a3
:0d602c000000000000000400000000000063
:20603900000000000000000000000000000000000000000000000000000000000000000047
:206059000000000000000000000000000000000000001000400000000000000000000000d7
:206079000000000000000000000000000040020a000000001b5a60000000000010f0800066
:0d60990000000000000000000000000000fa
:2060a6000000000000000000000000000000000000000000000000000000000000000000da
:2060c60000000000000000000000000000000000000a1000000000000000000000000000a0
:2060e60000000000000000000000002000100000000000000012bd400a0020000000002809
:0d61060000580802950000a00000000000f5
:2061130000000000000000000000000000000000000000000000000000000000000000006c
:20613300000000000000000000000000000000000008100000000000000000000000000034
:206153000000000000000000000000a0000000000000000000583fc00a00040000000028ff
:0d617300000001016a0000000000000000b3
:206180000000000000000000000000000000000000000000000000000000000000000000ff
:2061a0000000000000000000000000000000000000011000000000000000000000000000ce
:2061c00000000000000000000000000001c03fef70000005000000000c000000000000103f
:0d61e0001101e000000000000000000000c0
:2061ed00000000000000000000000000000000000000000000000000000000000000000092
:20620d00000000000000000000000000000000000000100000000000000000000000000061
:20622d0000000000000000000000001000201ecff000000d800000000c000000000000307b
:0d624d00020000000000000400000000003e
:20625a00000000000000000000000000000000000000000000000000000000000000000024
:20627a00000000000000000000000000000000000000105c00000000000000000000000098
:20629a00000000000000000000000000080297ee50200000000000000000000018f040009d
:0d62ba00003800000000000000000000009f
:2062c7000000000000000000000000000000000000000000000000000000000000000000b7
:2062e7000000000000000000000000000000000000001082000000000040000000000000c5
:206307000000000000000000000000000004030e50000000000000000100000000f0000020
:0d6327000008000000000000000000000061
:20633400000000000000000000000000000000000000000000000000000000000000000049
:206354000000000000000000000000000000000000000000004000000000000000000000e9
:20637400000000000000000000000000020280000000000000000000000020000ef0400027
:0d63940000000000000000040000000000f8
:2063a1000000000000000000000000000000000000000000000000000000000000000000dc
:2063c10000000000000000000000000000000000000000000020200000000000000000007c
:2063e1000000000000000000000000000140000000000000000000000000040000f08000e7
:0d640100000000000000000000000000008e
:20640e0000000000000000000000000000000000000000000000000000000000000000006e
:20642e0000000000000000000000000000000000000000000000000000000000000000004e
:20644e00000000000000000000000000000621ef5000000b80bba940400000640cf04001b8
:0d646e000000000000000000000000000021
:20647b00000000000000000000000000000000000000000000000000000000000000000001
:20649b000000000000000000000000000000000000000600000000000000000000000000db
:2064bb0000000000001000000000000000003d0fa000000d0030154000002c2000f00000f7
:0d64db008000000000000000000000000034
:2064e800000000000000000000000000000000000000000000000000000000000000000094
:20650800000000000000000000000000000000000000000000000000000000000000000073
:20652800000000000000000000000000000285cad4a040070000000000001c7808f040007b
:0d6548000010000000000000000000000036
:20655500000000000000000000000000000000000000000000000000000000000000000026
:20657500000000000000000000000000000000000000000000000000000000000000000006
:206595000000000000000000000000000000070ff0044000000000000000264010f08002b4
:0d65b50001080000000000000000000000d0
:2065c2000000000000000000000000000000000000000000000000000000000000000000b9
:2065e200000000000000000000000000000000000004000000000000000000000000004055
:206602000000000000000000000000000142bdea00000040000000000c0000001cf04010e6
:0d6622000400000000000000000000000067
