:02000000ff00ff
:080002004c6174746963650030
:17000a00694345637562653220323031372e30382e32373934300069
:16002100506172743a2069434534304858384b2d42473132310016
:1b003700446174653a2053657020313520323031382030323a30363a3332007c
:0200520000ffad
:040054007eaa997e69
:02005800510055
:02005a0001059e
:03005c00920020ef
:03005f00620367d2
:0300620072011018
:0300650082000016
:02006800110085
:02006a00010192
:20006c00000000000000000000000000000000000000000000000000000000000000000074
:20008c00000000000000000000000000000000000000000000000000000000000000000054
:2000ac00000000000000000000000000000000000000000000000000000000000000000034
:0d00cc000000000000000000000000000027
:2000d900000000000000000000000000000000000000000000000000000000000000000007
:2000f9000000000000000000000000000000000000000000000000000000000000000000e7
:200119000000000000000000000000000000000000000000000000000000000000000000c6
:0d01390000000000000000000000000000b9
:20014600000000000000000000000000000000000000000000000000000000000000000099
:20016600000000000400000000000010000000000000000000000000000000000000000065
:20018600000000000100000000000004000000000000000000000000000000000000000153
:0d01a6000000000000000400000000000048
:2001b30000000000000000000000000000000000000000000000000000000000000000002c
:2001d30000000000000000000000000000000000000000000000000000000000000000000c
:2001f3000000000000000000000000000000000000000000000000000000000000000000ec
:0d02130000000000000000000000000000de
:200220000000000000000000000000000000000000000000000000000000000000000000be
:2002400000000000000000000000000000000000000000000000000000000000000000009e
:2002600000000000000000000000000000000000000000000000000000000000000000007e
:0d0280000000000000000000000000000071
:20028d00000000000000000000000000000000000000000000000000000000000000000051
:2002ad00000000000000010000000000000000000000000000000000000000000000000030
:2002cd00000000000000000000000000000000000000000000000000000000000000000011
:0d02ed0000000000000000000040000000c4
:2002fa000000000000000000000000000000000000000000000000000000000000000000e4
:20031a000000000000000000000000100000000000000000000000000000000000000000b3
:20033a00000000000300001800000004000010000000000000000000000000000000000371
:0d035a00000044000000040000000000004e
:20036700000000000000000000000000000000000000000000000000000000000000000076
:20038700000000000000010000000020000000000000000000000000000000000000000035
:2003a7000000000000000000000000000000400000000000000000000000000000000000f6
:0d03c7000000000000000800010000000020
:2003d400000000000000000000000000000000000000000000000000000000000000000009
:2003f400000000000000001000000000000040000000000000000000000000000000000099
:200414000000000000000004000000000000100000000000000000000000000000000000b4
:0d04340000000400000000000010000000a7
:2004410000000000000000000000000000000000000000000000000000000000000000009b
:2004610000000000000000000000000000000000000000000000000000000000000000007b
:2004810000000000000000000000000000000000000000000000000000000000000000005b
:0d04a100000000000000000000000000004e
:2004ae0000000000000000000000000000000000000000000000000000000000000000002e
:2004ce0000000000000000000000000000000000000000000000000000000000000000000e
:2004ee000000000000000000000000000000000000000000000000000000000000000001ed
:0d050e0000000000000000000000000000e0
:20051b000000000000000000000000000000000000000000000000000000000000000000c0
:20053b000000000000000000000000000000000000000000000000000000000000000000a0
:20055b00000000000000000000000000000000000000000000000000000000000000000080
:0d057b000000000000000000000000000073
:20058800000000000000000000000000000000000000000000000000000000000000000053
:2005a800000000000000000000000000000000000000000000000000000000000000000033
:2005c80000000000000000000000000400000000000000000000000000000000000000000f
:0d05e8000000000000000000000000000006
:2005f5000000000000000000000000000000000000000000000000000000000000000000e6
:200615000000000000000000000000000000000000000000000000000000000000000000c5
:200635000000000000000000000000040000000000000000000000000000000000000001a0
:0d0655000000400000000000000000000058
:20066200000000000000000000000000000000000000000000000000000000000000000078
:20068200000000000000000000000000000000000000000000000000000000000000000058
:2006a200000000000000000000000000000000000000000000000000000000000000000038
:0d06c200000000000000000000000000002b
:2006cf0000000000000000000000000000000000000000000000000000000000000000000b
:2006ef000000000000000000000000000000000000000000000000000000000000000000eb
:20070f000000000000000000000000000001000000000000000000000000000000000000c9
:0d072f0000000000000000000000000000bd
:20073c0000000000000000000000000000000000000000000000000000000000000000009d
:20075c0000000000000000000000000000000000000000200000000000000000000000005d
:20077c0000000000000000000000000000000000000000000000000000000000000000005d
:0d079c000000000000000000000000000050
:2007a900000000000000000000000000000000000000000000000000000000000000000030
:2007c900000000000000000000000000000000000000101c000000000000000000000000e4
:2007e9000000000000000000000000000000000000000000000000000000000000000000f0
:0d08090000000000000000000000000000e2
:200816000000000000000000000000000000000000000000000000000000000000000000c2
:20083600000000000000000000000000000000000002001e00000000000000000000000082
:20085600000000000000000000000000000000000000000000000000000000000000000082
:0d0876000000000000000000000000000075
:20088300000000000000000000000000000000000000000000000000000000000000000055
:2008a300000000000000000000000000000000000002000000000000000000000000000033
:2008c300000000000280000000000000000000000000000000000000000000000000000093
:0d08e3000000000000000000000000000008
:2008f0000000000000000000000000000000000000000000000000000000000000000000e8
:200910000000000000000000000000000000000000000000000000000000000000000000c7
:200930000000000000000000000000000000000000000000000000000000000000000000a7
:0d095000000000000000000000000000009a
:20095d0000000000000000000000000000000000000000000000000000000000000000007a
:20097d0000000000000000000000000000000000000000000000000000000000000000005a
:20099d0000000000000000000000000000000000000000000000000000000000000000003a
:0d09bd00000000000000000000000000002d
:2009ca0000000000000000000000000000000000000000000000000000000000000000000d
:2009ea000000000000000000000000000000000000000004000000000000000000000000e9
:200a0a000000000000000000000000100000000000000000000000000000000000000000bc
:0d0a2a0010000000000000000000000000af
:200a370000000000000000000000000000000000000000000000000000000000000000009f
:200a570000000000000000000000000000000000000000020000000000000000000000007d
:200a770000000000000000000000001000000000000000000000000000000000000000004f
:0d0a97000000000000000000000000000052
:200aa400000000000000000000000000000000000000000000000000000000000000000032
:200ac400000000000000000000000000000000000000000000604000000000000000000072
:200ae4000000000000000000000000000000000000000000000000000000000000000000f2
:0d0b040000000000000000000000000000e4
:200b11000000000000000000000000000000000000000000000000000000000000000000c4
:200b31000000000000000000000000000000000000000000000000000000000000000000a4
:200b5100000000000000000000000000000000000000000000000000000000000000000084
:0d0b71000000000000000000000000000077
:200b7e00000000000000000000000000000000000000000000000000000000000000000057
:200b9e00000000000000000000000000000000000000000000000000000000000000000037
:200bbe0000000000000000000000000008000000000000000000000000000000000000000f
:0d0bde00000000000000000000000000000a
:200beb000000000000000000000000000000000000000000000000000000000000000000ea
:200c0b000000000000000000000000000000000000000000000000000000000000000000c9
:200c2b00000000000000000000000000100000000000000000000000000000000000000099
:0d0c4b00000000000000000000000000009c
:200c580000000000000000000000000000000000000000000000000000000000000000007c
:200c780000000000000000000000000000000000000000000000000000000000000000005c
:200c980000000000000000000000000000000000000000000000000000000000000000003c
:0d0cb800000000000000000000000000002f
:200cc50000000000000000000000000000000000000000000000000000000000000000000f
:200ce5000000000000000000000000000000000000000000000000000000000000000000ef
:200d05000000000000000000000000000000000000000000000000000000000000000000ce
:0d0d250000000000000000000000000000c1
:200d32000000000000000000000000000000000000000000000000000000000000000000a1
:200d520000000000000000000000000000000000000400000000000000000000000000007d
:200d7200000000000000000000000000000000000000000000000000000000000000000061
:0d0d92000000000000000000000000000054
:200d9f00000000000000000000000000000000000000000000000000000000000000000034
:200dbf0000000000000000000000000000000000000c000000000000000000000000000008
:200ddf000000000000000000000000000000000000000000000000000000000000000000f4
:0d0dff0000000000000000000000000000e7
:200e0c000000000000000000000000000000000000000000000000000000000000000000c6
:200e2c00000000000000000000000000000000000000100000000000000000000000000096
:200e4c00000000000000000000000000000000000000000000000000000000000000000086
:0d0e6c000000000000000000000000000079
:200e7900000000000000000000000000000000000000000000000000000000000000000059
:200e9900000000000000000000000000000000000000100000000000000000000000000029
:200eb900000000000000000000000000000000000000000000000000000000000000000019
:0d0ed900000000000000000000000000000c
:200ee6000000000000000000000000000000000000000000000000000000000000000000ec
:200f060000000000000000000000000000000000000a101c00000000000000000000000095
:200f26000000000000000000000000000000000000000000000000000000000000000000ab
:0d0f4600000000000000000000000000009e
:200f530000000000000000000000000000000000000000000000000000000000000000007e
:200f7300000000000000000000000000000000000008100200000000000000000000000044
:200f930000000000000000000000000000000000000000000000000000000000000000003e
:0d0fb3000000000000000000000000000031
:200fc000000000000000000000000000000000000000000000000000000000000000000011
:200fe0000000000000000000000000000000000000000000000000000000000000000000f1
:201000000000000000000000000000000000000000000000000000000000000000000000d0
:0d10200000000000000004000000000000bf
:20102d000000000000000000000000000000000000000000000000000000000000000000a3
:20104d00000000000000000000000000000000000000100000000000000000000000000073
:20106d00000000000000000000000000000000000000000000000000000000000000000063
:0d108d000000000000000a0000000000004c
:20109a00000000000000000000000000000000000000000000000000000000000000000036
:2010ba00000000000014000000000000000000000000000000000000000000000000000002
:2010da000000000000000000000000000800000000000000000000000000000000000000ee
:0d10fa0000000000000000000000000000e9
:201107000000000000000000000000000000000000000000000000000000000000000000c8
:20112700000000000000000000000000000000000000100000000000000000000000000098
:20114700000000000028000000000000000000000000000000000000000000000000000060
:0d116700000000000000000000000000007b
:2011740000000000000000000000000000000000000000000000000000000000000000005b
:2011940000000000000000000000000000000000000000000060400000000000000000009b
:2011b40000000000000000000000000000000000000000000000000000000000000000001b
:0d11d400000000000000000000000000000e
:2011e1000000000000000000000000000000000000000000000000000000000000000000ee
:201201000000000000000000000000000000000000000000000000000000000000000000cd
:201221000000000000000000000000000000000000000000000000000000000000000000ad
:0d12410000000000000000000000000000a0
:20124e00000000000000000000000000000000000000000000000000000000000000000080
:20126e00000000000000000000000000000000000000002000000000000000000000000040
:20128e00000000000000000000000000000000000000000000000000000000000000000040
:0d12ae000000000000000000000000000033
:2012bb00000000000000000000000000000000000000000000000000000000000000000013
:2012db00000000000000000000000000000000000000000c000000000000000000000000e7
:2012fb000000000000000000000000000000000000000000000000000000000000000000d3
:0d131b0000000000000000000000000000c5
:201328000000000000000000000000000000000000000000000000000000000000000000a5
:20134800000000000000000000000000000000000000000000000000000000000000000085
:20136800000000000000000000000000000000000000000000000000000000000000000065
:0d1388000000000000000000000000000058
:20139500000000000000000000000000000000000000000000000000000000000000000038
:2013b500000000000000000000000000000000000000000000000000000000000000000018
:2013d5000000000000000000000000000000000000000000000000000000000000000000f8
:0d13f50000000000000000000000000000eb
:201402000000000000000000000000000000000000000000000000000000000000000000ca
:2014220000000000000000000000000000000000000c01400000000000000000000000005d
:2014420000000000000000000000000000000000000000000000000000000000000000008a
:0d146200000000000000000000000000007d
:20146f0000000000000000000000000000000000000000000000000000000000000000005d
:20148f000000000000000000000000000000000000040080000000000000000000000000b9
:2014af0000000000000000000000000000000000000000000000000000000000000000001d
:0d14cf000000000000000000000000000010
:2014dc000000000000000000000000000000000000000000000000000000000000000000f0
:2014fc000000000000000000000000000000000000000000000000000000000000000000d0
:20151c000000000000000000000000000000000000000000000000000000000000000000af
:0d153c0000000000000000000000000000a2
:20154900000000000000000000000000000000000000000000000000000000000000000082
:20156900000000000000000000000000000000000000100c00000000000000000000000046
:20158900000000000000000000000000000000000000000000000000000000000000000042
:0d15a9000000000000000000000000000035
:2015b600000000000000000000000000000000000000000000000000000000000000000015
:2015d6000000000000000000000000000000000000020000000000000000000000000000f3
:2015f6000000000000000000000000000000000000000000000000000000000000000000d5
:0d16160000000000000010000000000000b7
:201623000000000000000000000000000000000000000000000000000000000000000000a7
:20164300000000000000000000000000000000000002000000000000000000000000000085
:20166300000000000000000000000000000000000000000000000000000000000000000067
:0d168300000000000000000000000000005a
:2016900000000000000000000000000000000000000000000000000000000000000000003a
:2016b00000000000000000000000000000000000000000000000000010000000000000000a
:2016d0000000000000000000000000000000000000000000000000000000000000000000fa
:0d16f00000000000000000000000000000ed
:2016fd000000000000000000000000000000000000000000000000000000000000000000cd
:20171d000000000000000000000000000000000000000000000000000000000000000000ac
:20173d0000000000000000000000000000000000000000000000000000000000000000008c
:0d175d00000000000000000000000000007f
:20176a0000000000000000000000000000000000000000000000000000000000000000005f
:20178a0000000000000000000000000000000000000000040000000000000000000000003b
:2017aa000000000004000000000000004000000000000000000000000000000000000004d7
:0d17ca000000000000000000000000000012
:2017d7000000000000000000000000000000000000000000000000000000000000000000f2
:2017f7000000000000000000000000000000000000000c3c0000000000000000000000008a
:201817000000000000000000000000000000000000000000000000000000000000000000b1
:0d18370000000000000000000000000000a4
:20184400000000000000000000000000000000000000000000000000000000000000000084
:201864000000000000000000000000000000000000000000016010000000000000000000f3
:20188400000000000000000000000000000000000000000000000000000000000000000044
:0d18a4000000000000000000000000000037
:2018b100000000000000000000000000000000000000000000000000000000000000000017
:2018d1000000000000000000000000000000000000000000000000000000000000000000f7
:2018f1000000000000000000000000000000000000000000000000000000000000000000d7
:0d19110000000000000000000000000000c9
:20191e000000000000000000000000000000000000000000000000000000000000000000a9
:20193e00000000000000000000000000000000000000000000000000000000000000000089
:20195e00000000000000000000000000000000000000000000000000000000000000000069
:0d197e00000000000000000000000000005c
:20198b0000000000000000000000000000000000000000000000000000000000000000003c
:2019ab0000000000000000000000000000000000000000000000000000000000000000001c
:2019cb000000000000000000000000000000000000000000000000000000000000000000fc
:0d19eb0000000000000000000000000000ef
:2019f8000000000000000000000000000000000000000000000000000000000000000000cf
:201a18000000000000000000000000000000000000000000000000000000000000000000ae
:201a380000000000000000000000000000000000000000000000000000000000000000008e
:0d1a58000000000000000000000000000081
:201a6500000000000000000000000000000000000000000000000000000000000000000061
:201a8500000000000000000000000000000000000000000000000000000000000000000041
:201aa500000000000000000000000000000000000000000000000000000000000000000021
:0d1ac5000000000000000000000000000014
:201ad2000000000000000000000000000000000000000000000000000000000000000000f4
:201af2000000000000000000000000000000000000040000000000000000000000000000d0
:201b12000000000000000000000000000000000000000000000000000000000000000000b3
:0d1b320000000000000000000000000000a6
:201b3f00000000000000000000000000000000000000000000000000000000000000000086
:201b5f0000000000000000000000000000000000000c00000000000000000000000000005a
:201b7f00000000000000000000000000000000000000000000000000000000000000000046
:0d1b9f000000000000000000000000000039
:201bac00000000000000000000000000000000000000000000000000000000000000000019
:201bcc000000000000000000000000000000000000001000000000000000000000000000e9
:201bec000000000000000000000000000000000000000000000000000000000000000000d9
:0d1c0c0000000000000000000000000000cb
:201c19000000000000000000000000000000000000000000000000000000000000000000ab
:201c390000000000000000000000000000000000000010000000000000000000000000007b
:201c590000000000000000000000000000000000000000000000000000000000000000006b
:0d1c7900000000000000000000000000005e
:201c860000000000000000000000000000000000000000000000000000000000000000003e
:201ca60000000000000000000000000000400000000a1000000000000000000000000000c4
:201cc6000000000000100000000000000000000000000000000000000000000000000000ee
:0d1ce60000000000000000000000000000f1
:201cf3000000000000000000000000000000000000000000000000000000000000000000d1
:201d1300000000000000000000000000000000000008103c0000000000000000000000005c
:201d3300000000000000000000000000000000000000000000000000000000000000000090
:0d1d53000000000000000000000000000083
:201d6000000000000000000000000000000000000000000000000000000000000000000063
:201d800000000000000000000000000000000000000014000000000000000000000000002f
:201da000000000000000000000000000000000000000000000000000000000000000000023
:0d1dc0000000000000000000000000000016
:201dcd000000000000000000000000000000000000000000000000000000000000000000f6
:201ded000000000000000000000000000000000000001800000000000000000000000000be
:201e0d000000000000000000000000000000000000000000000000000000000000000000b5
:0d1e2d0000000000000000000000000000a8
:201e3a00000000000000000000000000000000000000000000000000000000000000000088
:201e5a00000000000014000000000000000000000001102000000000000000000000000023
:201e7a00000000000000000000000000040000000000000000000000000000000000000044
:0d1e9a00000000000000000000000000003b
:201ea70000000000000000000000000000000000000000000000000000000000000000001b
:201ec700000000000000000000000000000000000001101c000000000000000000000000ce
:201ee7000000000000000000000000000800000000000000000000000000000000000000d3
:0d1f070000000000000000100000000000bd
:201f14000000000000000000000000000000000000000000000000000000000000000000ad
:201f34000000000000000000000000000000000000000000016040000000000000000000ec
:201f540000000000000000000000000000000000000000000000000000000000000000006d
:0d1f74000000000000000000000000000060
:201f8100000000000000000000000000000000000000000000000000000000000000000040
:201fa100000000000000000000000000000000000000000000000000000000000000000020
:201fc100000000000000000000000000000000000000000000000000000000000000000000
:0d1fe10000000000000000000000000000f3
:201fee000000000000000000000000000000000000000000000000000000000000000000d3
:20200e000000000000000000000000000000000000000000000000000000000000000000b2
:20202e00000000000000000000000000000000000000000000000000000000000000000092
:0d204e000400000000000000000000000081
:20205b00000000000000000000000000000000000000000000000000000000000000000065
:20207b00000000000000000000000000000000000000000000000000000000000000000045
:20209b00000000000000000000000000000000000000000000000000000000000000000025
:0d20bb000200000000000000000000000016
:2020c8000000000000000000000000000000000000000000000000000000000000000000f8
:2020e8000000000000000000000000000000000000000000000000000000000000000000d8
:202108000000000000000000000000000000000000000000000000000000000000000000b7
:0d21280000000000000000000000000000aa
:2021350000000000000000000000000000000000000000000000000000000000000000008a
:2021550000000000000000000000000000000000000000000000000000000000000000006a
:2021750000000000000000000000000000000000000000000000000000000000000000004a
:0d219500000000000000000000000000003d
:2021a20000000000000000000000000000000000000000000000000000000000000000001d
:2021c2000000000000000000000000000000000000040000000000000000000000000000f9
:2021e2000000000000000000000000000000000000000000000000000000000000000000dd
:0d22020000000000000000000000000000cf
:20220f000000000000000000000000000000000000000000000000000000000000000000af
:20222f0000000000000000000000000000000000000400000000000000000000000000008b
:20224f0000000000000000000000000000000000000000000000000000000000000000006f
:0d226f000000000000000000000000000062
:20227c00000000000000000000000000000000000000000000000000000000000000000042
:20229c00000000000000000000000000000000000000000000000000000000000000000022
:2022bc00000000000000000000000000000000000000000000000000000000000000000002
:0d22dc0000000000000000000000000000f5
:2022e9000000000000000000000000000000000000000000000000000000000000000000d5
:20230900000000000000000000000000000000000000103c00000000000000000000000068
:20232900000000000000000000000000000000000000000000000000000000000000000094
:0d2349000000000000000000000000000087
:20235600000000000000000000000000000000000000000000000000000000000000000067
:20237600000000000000000000000000000000000002001e00000000000000000000000027
:20239600000000000000000000000004000000000000000000000000000000000000000023
:0d23b600000000000000000000000000001a
:2023c3000000000000000000000000000000000000000000000000000000000000000000fa
:2023e3000000000000000000000000000000000000020002000000000000000000000000d6
:202403000000000000000000000000020000000000000000000000000000000000000000b7
:0d24230000000000000000000000000000ac
:2024300000000000000000000000000000000000000000000000000000000000000000008c
:2024500000000000000000000000000000000000000000000000000000000000000000006c
:2024700000000000000000000000001000000000000000000000000000000000000000003c
:0d249000000000000000000000000000003f
:20249d0000000000000000000000000000000000000000000000000000000000000000001f
:2024bd000000000000000000000000000000000000000000000000000000000000000000ff
:2024dd000000000000000000000000100000000000000000000000000000000000000000cf
:0d24fd0000000000000000000000000000d2
:20250a000000000000000000000000000000000000000000000000000000000000000000b1
:20252a0000000000000000000000000000000000000000040000000000000000000000008d
:20254a00000000000000000000000000000000000000000000000000000000000000000071
:0d256a000000000000000000000000000064
:20257700000000000000000000000000000000000000000000000000000000000000000044
:20259700000000000000000000000000000000000000000200000000000000000000000022
:2025b700000000000000000000000000000000000000000000000000000000000000000004
:0d25d70000000000000000000000000000f7
:2025e4000000000000000000000000000000000000000000000000000000000000000000d7
:20260400000000000000000000000000200000000000000000601000000000000000000026
:20262400000000000000000000000000140000000000000000000000000000000000000082
:0d2644000000000000000000000000000089
:20265100000000000000000000000000000000000000000000000000000000000000000069
:202671000000000000000000000000005000000000000000000000000000000000000000f9
:20269100000000000000000000000000000000000000000000000000000000000000000029
:0d26b100000000000000000000000000001c
:2026be000000000000000000000000000000000000000000000000000000000000000000fc
:2026de000000000000000000000000000000000000000000000000000000000000000000dc
:2026fe000000000000000000000000000000000000000000000000000000000000000000bc
:0d271e0000000000000000000000000000ae
:20272b0000000000000000000000000000000000000000000000000000000000000000008e
:20274b0000000000000000000000000000000000000000000000000000000000000000006e
:20276b0000000000000000000000000000000000000000000000000000000000000000004e
:0d278b000000000000000000000000000041
:20279800000000000000000000000000000000000000000000000000000000000000000021
:2027b800000000000000000000000000000000000000000000000000000000000000000001
:2027d8000000000000000000000000000000000000000000000000000000000000000000e1
:0d27f80000000000000000000000000000d4
:202805000000000000000000000000000000000000000000000000000000000000000000b3
:20282500000000000000000000000000000000000000000000000000000000000000000093
:20284500000000000000000000000000000000000000000000000000000000000000000073
:0d2865000000000000000000000000000066
:20287200000000000000000000000000000000000000000000000000000000000000000046
:20289200000000000000000000000000000000000004000000000000000000000000000022
:2028b200000000000000000000000000000000000000000000000000000000000000000006
:0d28d20000000000000000000000000000f9
:2028df000000000000000000000000000000000000000000000000000000000000000000d9
:2028ff0000000000000000000000000000000000000c0000000000000000000000000000ad
:20291f00000000000000000000000000000000000000000000000000000000000000000098
:0d293f00000000000000000000000000008b
:20294c0040000000000000000000000000000000000000000000000000000000000000002b
:20296c0000000000000000000000000000000000000010000000000000000000000000003b
:20298c0000000000000000000000000000000000000000000000000000000000000000002b
:0d29ac00000000000000000000000000001e
:2029b9000000000000000000000000000000000000000000000000000000000000000000fe
:2029d9000000000000000000000000000000000000001000000000000000000000000000ce
:2029f9000000000000000000000000000000000000000000000000000000000000000000be
:0d2a190000000000000000000000000000b0
:202a2600000000000000000000000000000000000000000000000000000000000000000090
:202a460000000000000000000000000000000000000a100000000000000000000000000056
:202a6600000000000000000000000000000000000000000000000000000000000000000050
:0d2a8600000400000000000000000000003f
:202a93008000000000000000000000000000000000000000000000000000000000000000a3
:202ab3000000000000000000000000000000000000081000000000000000000000000000eb
:202ad3000000000000000000000000000000000000000000000000000000000000000000e3
:0d2af30000000000000000000000000000d6
:202b0000400000000000000000000000000000000000000000000000000000000000000075
:202b2000000000000000000000000000000000000000100000000000000000000000000085
:202b4000000000000000000000000000000000000000000000000000000000000000000075
:0d2b60000000000000000000000000000068
:202b6d00000000000000000000000000000000000000000000000000000000000000000048
:202b8d00000000000000000000000000000000000000100000000000000000000000000018
:202bad00000000000000000000000000000000000000000000000000000000000000000008
:0d2bcd0000000000000000000000000000fb
:202bda000000000000000000000000000000000000000000000000000000000000000000db
:202bfa000000000000000000000000000000000000001000000000000000000000000000ab
:202c1a0000000000000000000000000000000000000040000000000000000000000000005a
:0d2c3a00000000000000000000000000008d
:202c470000000000000000000000000000000000000000000000000000000000000000006d
:202c670000000000000000000000000000000000000010000000000000000000000000003d
:202c87000000000000000000000000000000000000004000000000000000000000000000ed
:0d2ca7000000000000000020000000000000
:202cb400000000000000000000000000000000000000000000000000000000000000000000
:202cd400000000000000000000000000000000000000000078c040000000000000000a005e
:202cf4000000000000000000000000000000000000000000000000000008000000000000b8
:0d2d140000000000000000000000000000b2
:202d2100000000000000000000000000000000000000000000000000000000000000000092
:202d4100000000000000000000000000000000000000000000200000000000000000000052
:202d6100000000000000000000000000000000000000000000000000000000000000000052
:0d2d81000000000000000000000000000045
:202d8e004000000000000000000000000000000000000000000000000000000000000000e5
:202dae000000000000000000000000000000000000000020000000000000000000000000e5
:202dce000000000000000000000000000000000000000000000000000000000000000000e5
:0d2dee0000000000000000000000000000d8
:202dfb000000000000000000000000000000000000000000000000000000000000000000b8
:202e1b00000000000000000000000000000000000000000c0000000000000000000000008b
:202e3b0000000000002800000000000000000000000000000000000000000000000000004f
:0d2e5b00000000000000000000000000006a
:202e680000000000000000000000000000000000000000000000000000000000000000004a
:202e88000000000000080000000000000000000000000080000000000000000000000000a2
:202ea80000000000000000000000000000000000000000000000000000000000000000000a
:0d2ec80000000000000000000000000000fd
:202ed50080000000000000000000000000000000000000000000000000000000000000005d
:202ef500000000000014000000000000000000000000014000000000000000000000000068
:202f150000000000000000000000000010000000000000000000000000000000000000008c
:0d2f3500000000000000000000000000008f
:202f420040000000000000000000000000000000000000000000000000000000000000002f
:202f620000000000000000000000000000000000000c004000000000000000000000000003
:202f820000000000000000000000000000000000000000000000000000000000000000002f
:0d2fa2000000000000000000000000000022
:202faf00000000000000000000000000000000000000000000000000000000000000000002
:202fcf000000000000000000000000000000000000040000000000000000000000000000de
:202fef000000000000000000000000000000000000000000000000000000000000000000c2
:0d300f0000000000000000000000000000b4
:20301c00000000000000000000000000000000000000000000000000000000000000000094
:20303c00000000000000000000000000000000000000000030000000000000000000000044
:20305c00000000000000000000000000000000000000000000000000000000000000000054
:0d307c000000000000000000000000000047
:20308900000000000000000000000000000000000000000000000000000000000000000027
:2030a9000000000000000000000000000000000000001000000000000000000000000000f7
:2030c9000000000000000000000000000000000000000000000000000000000000000000e7
:0d30e90000000000000000000000000000da
:2030f6000000000000000000000000000000000000000000000000000000000000000000ba
:20311600000000000000000000000000000000000002000000000000000000000000000097
:20313600000000000000000000000000000000000000000000000000000000000000000079
:0d315600000000000000000000000000006c
:2031630000000000000000000000000000000000000000000000000000000000000000004c
:2031830000000000000000000000000000000000000a000000000000000000000000000022
:2031a300000000000000000000000000000000000000000000000000000000000000000408
:0d31c30000000000000000000000000000ff
:2031d0000000000000000000000000000000000000000000000000000000000000000000df
:2031f000000000000000000000000040000000000000001e00000000100000000000000051
:2032100000000000000000000000001000000000000000000000000000000000000000048a
:0d3230000000000000000000000000000091
:20323d00000000000000000000000000000000000000000000000000000000000000000071
:20325d0000000000000000000000004000000000000000020000000000000000000000000f
:20327d0000000000000000000000001000000000000000000000000000000000000000041d
:0d329d000000000000000000000000000024
:2032aa00000000000000000000000000000000000000000000000000000000000000000004
:2032ca000000000000000000000000400000000000000004000000000000000000000000a0
:2032ea0000000000043000000000000000000000000000000000000000000000000000048c
:0d330a0004000000000010000000000000a2
:20331700000000000000000000000000000000000000000000000000000000000000000096
:20333700000000000000000000000000000000000000040000000000000000000000000072
:20335700000000000000000000000000000000000000000000000000000000000000000056
:0d3377000200000000000000000000000047
:20338400000000000000000000000000000000000000000000000000000000000000000029
:2033a4000000000000000000000000000000000000000000004004000000000000000000c5
:2033c4000000000000000000000000000000000000000000000000000000000000000000e9
:0d33e40000000000000000000000000000dc
:2033f1000000000000000000000000000000000000000000000000000000000000000000bc
:2034110000000000000000000000000000000000000000000020000000000000000000007b
:2034310000000000000000000000000000000000000000000000000000000000000000007b
:0d345100000000000000000000000000006e
:20345e0000000000000000000000000000000000000000000000000000000000000000004e
:20347e0000000000000000000000000000000000000000000000000000000000000000002e
:20349e0000000000000000000000000000000000000000000000000000000000000000000e
:0d34be000000000000000000000000000001
:2034cb000000000000000000000000000000000000000000000000000000000000000000e1
:2034eb000000000000000000000000000000000000000000000000000000000000000000c1
:20350b000000000000000000000000000000000000000000000000000000000000000000a0
:0d352b000000000000000000000000000093
:20353800000000000000000000000000000000000000000000000000000000000000000073
:20355800000000000000000000000000000000000000000000000000000000000000000053
:20357800000000000000000000000000000000000000000000000000000000000000000033
:0d3598000000000000000000000000000026
:2035a500000000000000000000000000000000000000000000000000000000000000000006
:2035c5000000000000000000000000000000000000000000000000000000000000000000e6
:2035e5000000000000000000000000000000000000000000000000000000000000000000c6
:0d36050000000000000000000000000000b8
:20361200000000000000000000000000000000000000000000000000000000000000000098
:20363200000000000000000000000000000000000004000000000000000000000000000074
:20365200000000000000000000000000000000000000000000000000000000000000000058
:0d367200000000000000000000000000004b
:20367f0000000000000000000000000000000000000000000000000000000000000000002b
:20369f0000000000000000000000000000000000000c0000000000000000000000000000ff
:2036bf000000000000000000000000000000000000000000000000000000000000000000eb
:0d36df0018000000000000000000000000c6
:2036ec000000000000000000000000000000000000000000000000000000000000000000be
:20370c0000000000000000000000000000000000000010000000000000000000000000008d
:20372c000000000000000180000000000000000000000000000000000000000000000000fc
:0d374c000000000000000000000000000070
:20375900000000000000000000000000000000000000000000000000000000000000000050
:20377900000000000000000000000000000000000000100000000000000000000000000020
:20379900000000000000000000000000000000000000000000000000000000000000000010
:0d37b9000000000000000000000000000003
:2037c6000000000000000000000000000000000000000000000000000000000000000000e3
:2037e60000000000000000000000000000000000000a1000000000000000000000000000a9
:2038060000000000280000000000000000000000000000000000000000000000000000007a
:0d3826000000000000000000000000000095
:20383300000000000000000000000000000000000000000000000000000000000000000075
:2038530000000000000000000000000000000000000810000000000000000000000000003d
:20387300000000002000000000000000000000000000000000000000000000000000000015
:0d3893000000000000000000000000000028
:2038a000000000000000000000000000000000000000000000000000000000000000000008
:2038c0000000000000000000000000000000000000001000000000000000000000000000d8
:2038e000000000000000800000000000000000000000000000000000000000000000000048
:0d39000000000000000000000000000000ba
:20390d0000000000000000000000000000000000000000000000000000000000000000009a
:20392d00000000000000000000000000000000000000120000000000000000000000000068
:20394d000000000000007000000000000000000000000000000000000000000000000000ea
:0d396d00000000000000000000000000004d
:20397a0000000000000000000000000000000000000000000000000000000000000000002d
:20399a000000000000000000000000000000000000001000000000000000000000000000fd
:2039ba0000000000000010006bc100000000000000000000000000000000000000000000b1
:0d39da0000000000000000000000000000e0
:2039e7000000000000000000000000000000000000000000000000000000000000000000c0
:203a070000000000000000000000000000000000000010000000000000000000000000008f
:203a2700000000000000000003c000000000000000000000000000000000000000000000bc
:0d3a47000000000000000000000000000072
:203a5400000000000000000000000000000000000000000000000000000000000000000052
:203a7400000000000000000000000000000000000000000070c004000000000000000000fe
:203a9400000000000000000000000000000000000000000000000000000000000000000012
:0d3ab4000000000000000000000000000005
:203ac1000000000000000000000000000000000000000000000000000000000000000000e5
:203ae100000000000000000000000000000000000000000040200000000000000000000065
:203b01000000000000000000000000000000000000000000000000000000000000000000a4
:0d3b21000000000000000000000000000097
:203b2e00000000000000000000000000000000000000000000000000000000000000000077
:203b4e00000000000010000000000000000000000000112000000000000000000000000016
:203b6e000000000000400000000000000000000000000000000000000000000000000000f7
:0d3b8e000200000000000000000000000028
:203b9b0000000000000000000000000000000000000000000000000000000000000000000a
:203bbb00000000000008000000000000000000000000008c00000000000000000000000056
:203bdb000000000000000000000000000000000000000000000000000000000000000000ca
:0d3bfb0000000000000000000000000000bd
:203c080000000000000000000000000000000000000000000000000000000000000000009c
:203c280000000000000000000000000000000000000000000000000000000000000000007c
:203c48000000000000000009283c02000000000000000000000000000000000000000000ed
:0d3c6800000000000000000000000000004f
:203c750000000000000000000000000000000000000000000000000000000000000000002f
:203c950000000000000000000000000000000000000000000000000000000000000000000f
:203cb500000000000000000582bc00000000000000000000000000000000000000000000ac
:0d3cd50000000000000000000000000000e2
:203ce2000000000000000000000000000000000000000000000000000000000000000000c2
:203d020000000000000000000000000000000000000c000000000000000000000000000095
:203d2200000000000000000000000000080000000000000000000000000000000000000079
:0d3d42000400000000000000000000000070
:203d4f00000000000000000000000000000000000000000000000000000000000000000054
:203d6f00000000000000000000000000000000000004000000000000000000000000000030
:203d8f00000000000000000000000000140000000000000000000000000000000000000000
:0d3daf000200000000000000000000000005
:203dbc000000000000000000000000000000000000000000000000000000000000000000e7
:203ddc000000000000000000000000000000000000000000000000000000000000000000c7
:203dfc000000000000000007225b0002020687af5000000580b7c0001000000018f04080bf
:0d3e1c00000005ba94020000000fef5000f6
:203e2900000000000000000000000000000000000000000000000000000000000000000079
:203e4900000000000000000000000000000000000000100000000000000000000000000049
:203e69000000000000000000025808040140010f5000000000bb88000000000000f00000ff
:0d3e89000000070154000000003c0ff00095
:203e960000000000000000000000000000000000000000000000000000000000000000000c
:203eb6000000000000000000000000000000000000020000000000000000000000000000ea
:203ed6000000000028000017225b8000016037af700000000eff00002a000400000000009e
:0d3ef60000000000000000000021ee002090
:203f030000000000000000000000000000000000000000000000000000000000000000009e
:203f230000000000000000000000000000000000000a000000000000000000000000000074
:203f430000000000200090f002580000000036eff000000b1077440008000200000000046b
:0d3f63000000000000000000003d0d000007
:203f7000000000000000000000000000000000000000000000000000000000000000000031
:203f9000000000000000000000000000000000000000001e000000000000000000000000f3
:203fb0000000000030000015225b00000166c5a0002000000087be8000000000000000007e
:0d3fd00000000000000000020000000000e2
:203fdd000000000000000000000000000000000000000000000000000000000000000000c4
:203ffd000000000000000000000000000000000000000000000000000000000000000000a4
:20401d00000000003000008082580000000296004000000000103d40400000000000000054
:0d403d000000000000000000400000000036
:20404a00000000000000000000000000000000000000000000000000000000000000000056
:20406a00000000000000000000000000000000000000000400000000000000000000000032
:20408a000000000000001811a25b80100366fdd8000000001a7360400000000000000000f5
:0d40aa000080000000000000000000000089
:2040b7000000000000000000000000000000000000000000000000000000000000000000e9
:2040d7000000000000000000000000000000000000000002000000000000000000000000c7
:2040f7000000000000000080825800100142bee0008000000077d000000000000000000097
:0d41170000d00000000000000000000000cb
:2041240000000000000000000000000000000000000000000000000000000000000000007b
:20414400000000000000000000000000000000000000000001e0100000000000000000006a
:204164000000000000000007a25b000002003fe0101000000f960080e000000000000000f1
:0d4184000000000000000001403eaa000005
:2041910000000000000000000000000000000000000000000000000000000000000000000e
:2041b1000000000000000000000000000000000000000000000000000000000000000000ee
:2041d10000000000000000000258800000400ef0000000000fd40140000000000000000092
:0d41f1000000000000000001403e00000042
:2041fe000000000000000000000000000000000000000000000000000000000000000000a1
:20421e00000000000000000000000000000000000000100000000000000000000000000070
:20423e000000000000400005a25b0001020004aa00000400007f0040e010000000000000ba
:0d425e004000000000000001600ceaf020ac
:20426b00000000000000000000000000000000000000000000000000000000000000000033
:20428b00000000000000000000000000000000000000000000000000000000000000000013
:2042ab000000000000000000025800000140000a000000000eb4000000000000000000008c
:0d42cb000000000000000000000c042100b5
:2042d8000000000000000000000000000000000000000000000000000000000000000000c6
:2042f8000000000000000000000000000000000000000000000000000000000000000000a6
:2043180000000000000098c5a25b0000000216aa5020100d00b7d000200000000000000035
:0d4338000010000000000000668000000082
:20434500000000000000000000000000000000000000000000000000000000000000000058
:20436500000000000000000000000000000000000000000000000000000000000000000038
:204385000000000000001000825800000344350a1000000780bb80000000000000000000d6
:0d43a500009000000000000000000000007b
:2043b2000000000000000000000000000000000000000000000000000000000000000000eb
:2043d2000000000000000000000000000000000000040020000000000000000000000000a7
:2043f2000000000010008187a25b0004000016ca1020000901000000000000000000000078
:0d441200000000000000000206c0000000d5
:20441f0000000000000000000000000000000000000000000000000000000000000000007d
:20443f0000000000000000000000000000000000000c000c00000000000000000000000045
:20445f0000000000100010008258000201c25e00000000018f000000000000000000000090
:0d447f00000000000000000142800000006d
:20448c00000000000000000000000000000000000000000000000000000000000000000010
:2044ac000000000000000000000000000000000000001000000000000000000000000000e0
:2044cc000000000000380005225900000000000000000000007225b0000020696afa0000e4
:0d44ec002000100000000000000000000093
:2044f9000000000000000000000000000000000000000000000000000000000000000000a3
:20451900000000000000000000000000000000000000100000000000000000000000000072
:204539000000000000000000025810000000000000000000000025808000140010fa0000b5
:0d4559000000a000000000000000000000b5
:20456600000000000000000000000000000000000000000000000000000000000000000035
:2045860000000000000000000000000000000000000a101e0000000000000000000a0000d3
:2045a6000000000028000000000000a000100ccf50028000007225b0000000000000002801
:0d45c60000001000000000000000000000d8
:2045d3000000000000000000000000000000000000000000000000000000000000000000c8
:2045f300000000000000000000000000000000000008103c0000000000000000000a00004a
:204613000000000022000000000000800000020f50020000000025800000000000000020bd
:0d4633000000a000000000c000000000001a
:2046400000000000000000000000000000000000000000000000000000000000000000005a
:2046600000000000000000000000000000000000000010000000000000000000000c00001e
:20468000000000003000800000000000014014e006030000195225b0000c36060c05001083
:0d46a000000000000000000000000000000d
:2046ad000000000000000000000000000000000000000000000000000000000000000000ed
:2046cd000000000000000000000000000000000000001800000000000000000000040000b1
:2046ed0000000000100010000000000000228f0a00010000080825800000042bd00a001003
:0d470d00000000000000000000000000009f
:20471a0000000000000000000000000000000000000000000000000000000000000000007f
:20473a0000000000000000000000000000000000000010000000000000000000000000004f
:20475a00000000000280000000000000a200000000000005805225b0000036000000000039
:0d477a0000018000000000000000000000b1
:20478700000000000000000000000000000000000000000000000000000000000000000012
:2047a7000000000000000000000000000000000000001c00000000000000000000000000d6
:2047c70000000000010000000000000002400000000000008008258000001400000000004e
:0d47e70000000000000000000000000000c5
:2047f4000000000000000000000000000000000000000000000000000000000000000000a5
:20481400000000000000000000000000000000000000000000601000000000000000000014
:20483400041cf041000000100000000002026da200000000017a25b0000000200000000080
:0d4854000000000000000000000000000057
:20486100000000000000000000000000000000000000000000000000000000000000000037
:20488100000000000000000000000000000000000000000000000000000000000000000017
:2048a1003800f080000000c00000000002466ea0020028000a002580000000400000000020
:0d48c10000000000000000000000000000ea
:2048ce000000000000000000000000000000000000000000000000000000000000000000ca
:2048ee000000000000000000000000000000000000000000000000000000000000000006a4
:20490e00001cf04000000000000000000000000000000000007a2590004000016aa00000c3
:0d492e00000000000000000000000000007c
:20493b0000000000000000000000000000000000000000000000000000000000000000005c
:20495b00000000000000000000000000000000000000000000000000000000000000001428
:20497b000000f08000100000000000000003c000000000000000258000a0000000a00000f4
:0d499b00000000000000000000000000000f
:2049a8000000000000000000000000000000000000000000000000000000000000000000ef
:2049c800000000000000000000000000000000000000000000000003800000000000000448
:2049e800000000000000000000000000000040000000000980000000000000004afe02009c
:0d4a080000000000000000000000000000a1
:204a1500000000000000000000000000000000000000000000000000000000000000000081
:204a3500000000000000000000000000000000000000000000000000000000000000000061
:204a55000000000000000000000000000002400000000001000000000000000060ff00009f
:0d4a75000000000000000000000000000034
:204a8200000000000000000000000000000000000000000000000000000000000000000014
:204aa20000000000000000000000000000000000000400400000000000000000000c0004a0
:204ac200000000003000100000000000c40000000001000980000000000000301e101200d6
:0d4ae200000005e2a9000000000000000037
:204aef000000000000000000000000000000000000000000000000000000000000000000a7
:204b0f000000000000000000000000000000000000040e000000000000000000000c000266
:204b2f0000000000300000000000000000000000000300010000000000000002d02000013f
:0d4b4f00000000c2a880000000000000006f
:204b5c004000000000000000000000000000000000000000000000000000000000000000f9
:204b7c000000000000000000000000000000000000000000680000000000000000000000b1
:204b9c0000000000000001800000000002002ce100000008013aa9540000366d6896800008
:0d4bbc0000000000000000000000000000ec
:204bc9000000000000000000000000000000000000000000000000000000000000000000cc
:204be90000000000000000000000000000000000000010004000000000000000000000005c
:204c0900000000000000f0000000000003c314a0000400010f1b6980000014280096020035
:0d4c2900000000000000000000000000007e
:204c3600003800000000000000000000000000000000000000000000000000000000000026
:204c560000000000000000000000000000000000000200000000000000000000000a000032
:204c7600001ef04008000400000000a0020394eb060680000033f0d0200e20006896800154
:0d4c96000000000000000000000000000011
:204ca300800000000000000000000000000000000000000000000000000000000000000071
:204cc30000000000000000000000000000000000000a00000000000000000000000a0000bd
:204ce3000000f000080000000000008002c01caf10020000005bf8800000b400009610006d
:0d4d03008000e00000001000000000000033
:204d10004c0000000000000000000000000000000000000000000000000000000000000037
:204d3000000000000000000000000040000000000000001e000000031000000000060000ec
:204d500078000000100050800000000002665cea5700020018f2a95000014001e896a00081
:0d4d70000000000000000000000000000036
:204d7d000c000000000000000000000000000000000000000000000000000000000000000a
:204d9d0000000000000000000000004000000000000000020000000000000000000c0000a8
:204dbd0000000000321009000000000063c3a68590000007007b564040020000209600009a
:0d4ddd0000000000000000000000000000c9
:204dea000000000000000000000000000000000000000000000000000000000000040000a5
:204e0a00000000000000000000000000000000000000000400000040000000000000000440
:204e2a0000000000003050002bc1001010e60cae560800090032f0d020042000e896900091
:0d4e4a00020000603c80000000000000003d
:204e5700000000000000000000000000000000000000000000000000000000000004000037
:204e77000000000000000000000000080000000000000000000000400000000000000002d1
:204e9700000000000280080003c2001008201daa40000051005fb8800000140000960000db
:0d4eb700000000403c400000000000000032
:204ec4000000000000000000000000000000000000000000000000000000000000000000ce
:204ee400000000000000000000000000000000000000000000404000000000000000000628
:204f0400000cf0400002000023c1000053e054ea15000008015aa956000000004896800025
:0d4f24000000000000000000000000000080
:204f3100000000000000000000000000000000000000000000000000000000000000000060
:204f5100000000000000000000000000000000000000000000200000000000000000000020
:204f71000000f0804000000043c0000003c346da700000050e335640000000002096000085
:0d4f91000000000000000000000000000013
:204f9e0040000000000000000000000000000000100000000000000e000000000000000095
:204fbe000000000000000000000000000000000000000000000000000000000000000000d3
:204fde0000000000000000006bc1000004005feb070000001a000000000e2000489680008c
:0d4ffe0000000000000000000000000000a6
:20500b000c0000000000000000000000000000002000000000000000000000000000000059
:20502b000000000000000000000000000000000000000a0000000003000000000000000058
:20504b00000000000000000003c2000003c21daf100000000000000000003c0020960000ed
:0d506b000000000000000000000000000038
:20507800000000000000000000000000000000000000000000000000000000000000000018
:20509800000000000000000000000000000000000000000000000000000000000000001eda
:2050b80000000000000000000000000001c066ea540800098f000000000000004896800075
:0d50d80000000000000000000000000000cb
:2050e50080000000000000000000000000000000000000000000000000000000000000002b
:20510500000000000000000000000000000000000000000000000000000000000000004248
:2051250000000000000000000000000000622e8a60084007180000000000000000960000f3
:0d514500000000000000000000000000005d
:2051520040700000000000000000000000000000000000000000000000000000000000008d
:205172000000000000000000000000000000000000040000000000400000000000040016bf
:205192000000000034003800000000c00063978b0581000d8113a8000060000448968000bb
:0d51b20010000000000000000000000000e0
:2051bf000000000000000000000000000000000000000000000000000000000000000000d0
:2051df0000000000000000000000000000000000000c00000000004000000000000c000058
:2051ff0000000000340000000000004000041eaf108300050a7c3c0040a0003c009600003f
:0d521f000000000000000000000000000082
:20522c00000000000000000000000000000000000000000000000000000000000000000062
:20524c000000000000080000000000000000000000001080000000000000000000000000aa
:20526c00000ef040000000007bc1000000004000000010000000000000000004c896800076
:0d528c0000000000000000a0000000000075
:205299000000000000000000000000000000000000000000000000000000000000000000f5
:2052b900000000000014000000000000000000000000114000000000000000000000000070
:2052d9000010f0000000000043c200043002800000002800000000000000003c20961400cc
:0d52f90000000000000000000000000000a8
:20530600000000000000000000000000000000000000000000000000000000000000000087
:2053260000000000000000000000000000000000000a10000000000000000000000a000043
:2053460000000000280080007bc100a00000008f04004000000000000a0000054896800083
:0d5366000000000000000200000000000038
:2053730000000000000000000000000000000000000000000000000000000000000000001a
:2053930000000000000000000000000000000000000810000000000000000000000a0000d8
:2053b300000000002800b00003c200a00000010f00000000000000000800003c2096100083
:0d53d30000000000000000000000000000cd
:2053e0000000000000000000000000000000000000000000000000000000000000000000ad
:2054000000000000000000000000000000000000000010000000000000000000000c400030
:20542000001ef040300081803bc100c408000000000000000000000004000078e8968000ab
:0d544000000000000000000400000000005b
:20544d0000000000000000000000000000000000000000000000000000000000000000003f
:20546d0000000000000000000000000000000000000010000000000000000000000c805c27
:20548d000010f0801000f00043c200c200000000000000000000000004200040209601009d
:0d54ad0000000000000000080000000000ea
:2054ba000000040000000000000000000000000000000000000000000000000000000000ce
:2054da000000000000000000000000000000000000001000000000000000000000000000a2
:2054fa00000000000000800033c1000400000000000028000000000000001e006896e000f6
:0d551a000004000000000000000000000080
:20552700000004000000000000000000000000000000000000000000000000000000000060
:205547000000000000600000000000000000000000001000000000000000000000000000d4
:20556700000000000000100003c00008000000000000000000000000000000002096010092
:0d5587000000000000000000000000000017
:205594000000000000000000000000000000000000000000000000000000000000000000f7
:2055b400000000000000000000000000000000000000000001c00000000000000000000016
:2055d40000000000000080002bc10000a0000000000013800000000000000039e896e00081
:0d55f40000000000000000000000000000aa
:20560100000000000000000000000000000000000000000000000000000000000000000089
:20562100000000000000000000000000000000000000000000204000000000000000000009
:20564100000000000000109003c000000000000000002800000000000000004000960900df
:0d566100000000000000000000000000003c
:20566e0000000000000000000000000000000000000000000000000000000000000000001c
:20568e000000000000000000000000000000000000000020000000000000000000000000dc
:2056ae0000000000000000002bc10000101000000000000000000000000000716896010060
:0d56ce0000000000000000000000000000cf
:2056db000000000000000000000000000000000000000000000000000000000000000000af
:2056fb00000000000000000000000000000000000000000c0000000000000000000000047f
:20571b00000000000000000043c2000008000000000000000000000000001c40009600006f
:0d573b000000000000000020000000000041
:20574800000000000000000000000000000000000000000000000000000000000000000041
:2057680000000000000000000000000000000000000000800000000000000000000000049d
:205788003c0af040000010006bc1000a004380000000000000000000000000000000000082
:0d57a80000000000000000000000000000f4
:2057b5000000000000000000000000000000000000000000000000000000000000000000d4
:2057d50000000000000000000000000000000000000001403c000000000000000000000235
:2057f5002000f000000008b003c20004802000000000002000000000000000000000000043
:0d5815000000000000000000000000000086
:20582200000000000000000000000000000000000000000000000000000000000000000066
:2058420000000000000000000000000000000000000c00000000000000000000000c00002e
:205862000400000010003010000000c00140000000000000000000000c00200000000000a5
:0d5882000000000000000000000000000019
:20588f000000000000000000000000000000000000000000000000000000000000000000f9
:2058af000000000000000000000000000000000000040000000000000000000000040000d1
:2058cf002000000010000080000000c0000000000000000000000000040004000000000041
:0d58ef0000000000000000000000000000ac
:2058fc00060000000000000000000000000000000000000000000000000000000000000086
:20591c00000000000000000000000000000000000000000000000000001802bc1000000085
:20593c00000000000000001073c10004080000cf04000000017ba94000000001c896c000a4
:0d595c00000001f2800000000000000000cb
:2059690000000000000000000000000000000000000000000000000000000000000000001e
:20598900000000000000000000000000000000000000103c000000000000003c2000000452
:2059a900000000000018008043c000000400010f080000000877f9400000040000960200d3
:0d59c9000010000280840002c000000000f9
:2059d6000000000000000000000000000000000000000000000000000000000000000000b1
:2059f6000000000000000000000000000000000000020000000000800800000000020014f1
:205a1600000ef0402800500023c100a0020000000000800000ba3c4082000001c896c008d5
:0d5a3600001800000000000000000000004b
:205a4300000000000000000000000000000000000000000000000000000000000000000043
:205a630000000000000000000000000000000000000200000000028001000000000200029a
:205a83000000f0002800080043c2012a004000000002c000003c3c00020000000096000899
:0d5aa300027000000000000800000000007c
:205ab0000000000000000000000000000000000000000000000000000000000000000000d6
:205ad0000000000000000000000000000000000000000000000001000f9e023c100c0000ae
:205af000001cf0703001000063c100c60340000000000007803bbd400c0000654896c000ee
:0d5b10000001800000000000000000000007
:205b1d00000000000000000000000000000000000000000000000000000000000000000068
:205b3d000000000000000000000000000000000000000000000003000990043c201c000030
:205b5d000000f0a83000000003c20044004000000000000080083d400c0000202096000030
:0d5b7d00000000000000000000000000001b
:205b8a000000000000000000000000000000000000000000000000000000000000000000fb
:205baa000000000000000000000000001000000000000004040000000000063c100000046d
:205bca000000000000023800000000048060018f040000500073a940000006054896c000b4
:0d5bea0000000063c10000e1c000000000e9
:205bf70000000000000000000000000000000000000000000000000000000000000000008e
:205c170000000000000000000000000020000000000000023c0000000000003c00000000d3
:205c37000000000000030000000000080000000f0000000d00f83d400008002020960000d3
:0d5c570000000003c000100020000000004d
:205c6400000000000000000000000000000000000000000000000000000000000000000020
:205c84000000000000000000000000000000000000000000016040000800073c10000006fe
:205ca400000000000004800073c10000000280af04000008007ebd4000000001e896c00031
:0d5cc400000000000000000007800000004c
:205cd1000000000000000000000000000000000000000000000000000000000000000000b3
:205cf1000000000000000000000000000000000000000000002000000100003c2000000016
:205d1100000000000002100003c000000647000f0800000500f03fc00000000000960100ae
:0d5d31000000000000000000000000000065
:205d3e00000000000000000000000000000000000000000000000000000000000000000045
:205d5e000000000000000000000000000000000000000000000000000199073c1000000632
:205d7e000200a540000519a033c10004040000af040020059b33841ac00000016896c000a1
:0d5d9e000078002bc1000000000000000094
:205dab000000000000000000000000000000000000000000000000000000000000000000d8
:205dcb000000000000000000000000000000000000000000000000000008043c2000000050
:205deb0000405a000002000003c2000a0800000f080000000af00900400000000096000035
:0d5e0b0005080043c000000000000000007a
:205e180000000000000000000000000000000000000000000000000000000000000000006a
:205e38000000000000000000000000000000000000000080000000000000073c1000000473
:205e5800380cf040000038800000000200000000000000059b000000000026396896c0003f
:0d5e78000000000000000001e00ded5000f2
:205e85000000000004000000000000000000000000000000000000000000000000000000f9
:205ea5000000000000000000000000000000000000000140000000000000043c000000005c
:205ec5004000f080000008000000000000000000000000050a0000000000444020960000bc
:0d5ee5000000000000000000201f8d0000e4
:205ef20000000000000000000000000000000000000000000000010000000000000000008f
:205f12000000000000000000000000000000000000040000000003000700033c100400000e
:205f32000000000010000000000000c0016001af04000008000000000c203e61e896c00059
:0d5f52000000000000000000025fac102005
:205f5f00000000000000000000000000000000000000000000000100000000000000000021
:205f7f0000000000000000000000000000000000000c0000000003000080003c200c00000b
:205f9f000000000030040000000000c00000000f08001005000000000c00060020960000fa
:0d5fbf000100000000001000032e0e600025
:205fcc000000000000000000000000000000000000000000000000000000000000000000b5
:205fec00000000000000000000000000000000000000100070000000000000000000000015
:20600c0028000000000001806bc1000000000000000000050000000000000001c896c0007b
:0d602c000001ab7f4c0000000000000000f0
:20603900000000000000000000000000000000000000000000000000000000000000000047
:206059000000000000000000000000000000000000001000400000000000000000000000d7
:206079006c0000000000010003c2000000000000000000000f0000000000003400960400f8
:0d609900000007ffdc6000000000000000b8
:2060a6000000000000000000000000000000000000000000000000000000000000000000da
:2060c60000000000000000000000000000000000000a10000000000000000000000a000096
:2060e600000af0402800000000000000000000c80000c0099bd654000a0000014896c02811
:0d61060000000000000020100280000000da
:2061130000000000000000000000000000000000000000000000000000000000000000006c
:20613300000000000000000000000000000000000008103c0000000000000000000a0000ee
:206153002810f000280000000000000000000dd400028101895b28400a0000000096002863
:0d6173000200e0000000a04000000000005d
:206180000000000000000000000000000000000000000000000000000000000000000000ff
:2061a00000000000000000000000000000000000000010000000000000000000000c0000c3
:2061c000601af040300000000000000008003daf102100070a160088840006654896c00084
:0d61e0000058f00000000001c000000000a9
:2061ed00000000000000000000000000000000000000000000000000000000000000000092
:20620d0000000000000000000000000000000000000010000000000000000000000c000055
:20622d000000f080700000000000000000000d0f000100000a7400c04400002020960000fc
:0d624d000098a0000000000000000000000c
:20625a00000004000000000000000000000000000000000000000000000000000000000020
:20627a000000000000000000000000000000000000001000000000000000000000000020d4
:20629a00001cf040000001806bc1000020007cea5130000500b63d4000000001489640008d
:0d62ba00000093e2940000000000000000ce
:2062c7000000040000000000000000000000000000000000000000000000000000000000b3
:2062e7000000000000000000000000000000000000001c0000000000000000000000000477
:206307000010f0800000500043c0000000022e040010000f00fc3fc0000000002096080097
:0d6327000001b5415404000000000000001a
:20633400000000000000000000000000000000000000000000000000000000000000000049
:206354000000000000000000000000000000000000000000004040000000000000000000a9
:20637400001cf040000080000000000201428000000000000d1abdc0800000000000000054
:0d6394000001ef6e9c0020000027cf540494
:2063a1000000000000000000000000000000000000000000000000000000000000000000dc
:2063c10000000000000000000000000000000000000000000020000000000000000000009c
:2063e1000010f00000001000000000040026c000000000091a743fc000000000000000000c
:0d64010000000d7688000000001f0a00005a
:20640e0000000000000000000000000000000000000000000000000000000000000000006e
:20642e00000000000000000000000000000000000000a000000000000000000000000000ae
:20644e006418f0400080001073c1000001470000000000090e37615c20000000000000004b
:0d646e003800052b450800000680000000e6
:20647b00000000000000000000000000000000000000000000000000000000000000000001
:20649b000000000000000000000000000000000000000000000000000000000000000000e1
:2064bb002010f0800110008043c00000036000000000000b10b37680500000000000000016
:0d64db000010f083440400000000000000e9
:2064e800000000000000000000000000000000000000000000000000000000000000000094
:2065080000000000000000000000000000000000000000000000000000000000000000046f
:206528002008f040000010a023c1000001c3afef501040258000000000002400000000009c
:0d6548000010012bd48000000000000000b6
:20655500000000000000000000000000000000000000000000000000000000000000000026
:20657500000000000000000000000000000000000000000000000000000000000000000006
:206595000010f0800000000043c2000023403d0ff00040000000000000000400000000007e
:0d65b500009000c3d40000000000000000b2
:2065c2000000000000000000000000000000000000000000000000000000000000000000b9
:2065e20000000000000000000000000000000000000400400000000000000000000c8004c5
:206602000008f0403000700033c100080002bcea50210000000000000c000400000000007b
:0d6622000011c0000000000040000000005a
