:02000000ff00ff
:080002004c6174746963650030
:17000a00694345637562653220323031372e30382e32373934300069
:16002100506172743a2069434534304858384b2d42473132310016
:1b003700446174653a2053657020313420323031382030313a32393a3430007a
:0200520000ffad
:040054007eaa997e69
:02005800510055
:02005a0001059e
:03005c00920020ef
:03005f00620367d2
:0300620072011018
:0300650082000016
:02006800110085
:02006a00010192
:20006c00000000000000000000000000000000000000000000000000000000000000000074
:20008c00000000000000000000000000000000000000000000000000000000000000000054
:2000ac00000000000000000000000000000000000000000000000000000000000000000034
:0d00cc000000000000000000000000000027
:2000d900000000000000000000000000000000000000000000000000000000000000000007
:2000f9000000000000000000000000000000000000000000000000000000000000000000e7
:200119000000000000000000000000000000000000000000000000000000000000000000c6
:0d01390000000000000000000000000000b9
:20014600000000000000000000000000000000000000000000000000000000000000000099
:20016600000000000400000000000010000000000000000000000000000000000000000065
:20018600000000000100000000000004000000000000000000000000000000000000000153
:0d01a6000000000000000400000000000048
:2001b30000000000000000000000000000000000000000000000000000000000000000002c
:2001d30000000000000000000000000000000000000000000000000000000000000000000c
:2001f3000000000000000000000000000000000000000000000000000000000000000000ec
:0d02130000000000000000000000000000de
:200220000000000000000000000000000000000000000000000000000000000000000000be
:2002400000000000000000000000000000000000000000000000000000000000000000009e
:2002600000000000000000000000000000000000000000000000000000000000000000007e
:0d0280000000000000000000000000000071
:20028d00000000000000000000000000000000000000000000000000000000000000000051
:2002ad00000000000000000000000000000000000000000000000000000000000000000031
:2002cd00000000000000000000000000000000000000000000000000000000000000000011
:0d02ed0000000000000000000040000000c4
:2002fa000000000000000000000000000000000000000000000000000000000000000000e4
:20031a00000000000000002000000010000000000000000000000000000000000000000093
:20033a00000000000300000800000004000010000000000000000000000000000000000183
:0d035a00000044000000080000000000004a
:20036700000000000000000000000000000000000000000000000000000000000000000076
:20038700000000000000010000000020000000000000000000000000000000000000000035
:2003a7000000000000000040000000000000400000000000000000000000000000000002b4
:0d03c7000000000000000000010000000028
:2003d400000000000000000000000000000000000000000000000000000000000000000009
:2003f400000000000000001000000000000040000000000000000000000000000000000099
:200414000000000000000004000000000000100000000000000000000000000000000000b4
:0d04340000000400000000000010000000a7
:2004410000000000000000000000000000000000000000000000000000000000000000009b
:2004610000000000000000000000000000000000000000000000000000000000000000007b
:2004810000000000000000000000000000000000000000000000000000000000000000005b
:0d04a100000000000000000000000000004e
:2004ae0000000000000000000000000000000000000000000000000000000000000000002e
:2004ce0000000000000000000000000000000000000000000000000000000000000000000e
:2004ee000000000000000000000000040000000000000000000000000000000000000000ea
:0d050e0000000000000000000000000000e0
:20051b000000000000000000000000000000000000000000000000000000000000000000c0
:20053b000000000000000000000000000000000000000000000000000000000000000000a0
:20055b00000000000000000000000000000000000000000000000000000000000000000080
:0d057b000000000000000000000000000073
:20058800000000000000000000000000000000000000000000000000000000000000000053
:2005a800000000000000000000000000000000000000000000000000000000000000000033
:2005c800000000000000000000000000000000000000000000000000000000000000000013
:0d05e80000001000000000000000000000f6
:2005f5000000000000000000000000000000000000000000000000000000000000000000e6
:200615000000000000000000000000000000000000000000000000000000000000000000c5
:200635000000000000000000000000040000000000000000000000000000000000000001a0
:0d0655000000000000000000000000000098
:20066200000000000000000000000000000000000000000000000000000000000000000078
:20068200000000000000000000000000000000000000000000000000000000000000000058
:2006a200000000000000000000000000000000000000000000000000000000000000000137
:0d06c200000000000000000000000000002b
:2006cf0000000000000000000000000000000000000000000000000000000000000000000b
:2006ef000000000000000000000000000000000000000000000000000000000000000000eb
:20070f000000000000000000000000000001000000000000000000000000000000000000c9
:0d072f0000000000000000000000000000bd
:20073c0000000000000000000000000000000000000000000000000000000000000000009d
:20075c0000000000000000000000000000000000000000000000000000000000000000007d
:20077c0000000000000000000000000000000000000000000000000000000000000000005d
:0d079c000000000000000000000000000050
:2007a900000000000000000000000000000000000000000000000000000000000000000030
:2007c9000000000000000000000000000000000000001024000000000000000000000000dc
:2007e9000000000000000000000000000000000000000000000000000000000000000000f0
:0d08090000000000000000000000000000e2
:200816000000000000000000000000000000000000000000000000000000000000000000c2
:20083600000000000000000000000000000000000002001e00000000000000000000000082
:20085600000000000000000000000000000000000000000000000000000000000000000082
:0d0876000000000000000000000000000075
:20088300000000000000000000000000000000000000000000000000000000000000000055
:2008a300000000000000000000000000000000000002000000000000000000000000000033
:2008c300000000000280000000000000000000000000000000000000000000000000000093
:0d08e3000000000000000000000000000008
:2008f0000000000000000000000000000000000000000000000000000000000000000000e8
:200910000000000000000000000000000000000000000000000000000000000000000000c7
:200930000000000000000000000000000000000000000000000000000000000000000000a7
:0d095000000000000000000000000000009a
:20095d0000000000000000000000000000000000000000000000000000000000000000007a
:20097d0000000000000000000000000000000000000000000000000000000000000000005a
:20099d0000000000000000000000000000000000000000000000000000000000000000003a
:0d09bd00000000000000000000000000002d
:2009ca0000000000000000000000000000000000000000000000000000000000000000000d
:2009ea000000000000000000000000000000000000000000000000000000000000000000ed
:200a0a000000000000000000000000000000000000000000000000000000000000000004c8
:0d0a2a0010000000000000000000000000af
:200a370000000000000000000000000000000000000000000000000000000000000000009f
:200a570000000000000000000000000000000000000000000000000000000000000000007f
:200a770000000000000000000000000000000000000000000000000000000000000000005f
:0d0a97000000000000000000000000000052
:200aa400000000000000000000000000000000000000000000000000000000000000000032
:200ac4000000000000000000000000000000000000000000006000000000000000000000b2
:200ae4000000000000000000000000000000000000000000000000000000000000000000f2
:0d0b040000000000000000000000000000e4
:200b11000000000000000000000000000000000000000000000000000000000000000000c4
:200b310000000000000000000000000000000000000000000000080000000000000000009c
:200b5100000000000000000000000000000000000000000000000000000000000000000084
:0d0b71000000000000000000000000000077
:200b7e00000000000000000000000000000000000000000000000000000000000000000057
:200b9e00000000000000000000000000000000000000000000000000000000000000000037
:200bbe00000000000000000000000000000000000000000000000000000000000000000017
:0d0bde00000000000000000000000000000a
:200beb000000000000000000000000000000000000000000000000000000000000000000ea
:200c0b000000000000000000000000000000000000000000000000000000000000000000c9
:200c2b000000000000000000000000000000000000000000000000000000000000000000a9
:0d0c4b00000000000000000000000000009c
:200c580000000000000000000000000000000000000000000000000000000000000000007c
:200c780000000000000000000000000000000000000000000000000000000000000000005c
:200c980000000000000000000000000000000000000000000000000000000000000000003c
:0d0cb800000000000000000000000000002f
:200cc50000000000000000000000000000000000000000000000000000000000000000000f
:200ce5000000000000000000000000000000000000000000000000000000000000000000ef
:200d05000000000000000000000000000000000000000000000000000000000000000000ce
:0d0d250000000000000000000000000000c1
:200d32000000000000000000000000000000000000000000000000000000000000000000a1
:200d520000000000000000000000000000000000000c000400000000000000000000000071
:200d7200000000000000000000000000000000000000000000000000000000000000000061
:0d0d92000000000000000000000000000054
:200d9f00000000000000000000000000000000000000000000000000000000000000000034
:200dbf0000000000000000000000000000000000000c000000000000000000000000000008
:200ddf000000000000000000000000000000000000000000000000000000000000000000f4
:0d0dff0000000000000000000000000000e7
:200e0c000000000000000000000000000000000000000000000000000000000000000000c6
:200e2c00000000000000000000000000000000000000100000000000000000000000000096
:200e4c00000000000000000000000000000000000000000000000000000000000000000086
:0d0e6c000000000000000000000000000079
:200e7900000000000000000000000000000000000000000000000000000000000000000059
:200e9900000000000000000000000000000000000000100000000000000000000000000029
:200eb900000000000000000000000000000000000000000000000000000000000000000019
:0d0ed900000000000000000000000000000c
:200ee6000000000000000000000000000000000000000000000000000000000000000000ec
:200f060000000000000000000000000000000000000a101c00000000000000000000000095
:200f26000000000000000000000000000000000000000000000000000000000000000000ab
:0d0f4600000000000000000000000000009e
:200f530000000000000000000000000000000000000000000000000000000000000000007e
:200f7300000000000000000000000000000000000008100200000000000000000000000044
:200f930000000000000000000000000000000000000000000000000000000000000000003e
:0d0fb3000000000000000000000000000031
:200fc000000000000000000000000000000000000000000000000000000000000000000011
:200fe0000000000000000000000000000000000000000000000000000000000000000000f1
:201000000000000000000000000000000000000000000000000000000000000000000000d0
:0d10200000000000000004000000000000bf
:20102d000000000000000000000000000000000000000000000000000000000000000000a3
:20104d00000000000000000000000000000000000000100000000000000000000000000073
:20106d00000000000000000000000000000000000000000000000000000000000000000063
:0d108d000000000000000a0000000000004c
:20109a00000000000000000000000000000000000000000000000000000000000000000036
:2010ba00000000000014000000000000000000000000000000000000000000000000000002
:2010da000000000000000000000000000800000000004000000000000000000000000000ae
:0d10fa0000000000000000000000000000e9
:201107000000000000000000000000000000000000000000000000000000000000000000c8
:20112700000000000000000000000000000000000000100000000000000000000000000098
:20114700000000000000000000000000000000000000480000000000000000000000000040
:0d116700000000000000000000000000007b
:2011740000000000000000000000000000000000000000000000000000000000000000005b
:2011940000000000000000000000000000000000000000000060400040000000000000005b
:2011b40000000000000000000000000000000000000000000000000000000000000000001b
:0d11d400000000000000000000000000000e
:2011e1000000000000000000000000000000000000000000000000000000000000000000ee
:201201000000000000000000000000000000000000000000000000000000000000000000cd
:201221000000000000000000000000000000000000000000000000000000000000000000ad
:0d12410000000000000000000000000000a0
:20124e00000000000000000000000000000000000000000000000000000000000000000080
:20126e00000000000000000000000000000000000000000000000000100000000000000050
:20128e00000000000000000000000000000000000000000000000000000000000000000040
:0d12ae000000000000000000000000000033
:2012bb00000000000000000000000000000000000000000000000000000000000000000013
:2012db000000000000000000000000000000000000000000000000000000000000000000f3
:2012fb000000000000000000000000000000000000000000000000000000000000000000d3
:0d131b0000000000000000000000000000c5
:201328000000000000000000000000000000000000000000000000000000000000000000a5
:20134800000000000000000000000000000000000000000000000000000000000000000085
:20136800000000000000000000000000000000000000000000000000000000000000000065
:0d1388000000000000000000000000000058
:20139500000000000000000000000000000000000000000000000000000000000000000038
:2013b500000000000000000000000000000000000000000000000000000000000000000018
:2013d5000000000000000000000000000000000000000000000000000000000000000000f8
:0d13f50000000000000000000000000000eb
:201402000000000000000000000000000000000000000000000000000000000000000000ca
:2014220000000000000000000000000000000000000c015c00000000000000000000000041
:20144200000000000200000000000000000000000000000000000000000000000000000088
:0d146200000000000000000000000000007d
:20146f0000000000000000000000000000000000000000000000000000000000000000005d
:20148f0000000000000000000000000000000000000c0080000000000000000000000000b1
:2014af0000000000000000000000000000000000000000000000000000000000000000001d
:0d14cf000000000000000000000000000010
:2014dc000000000000000000000000000000000000000000000000000000000000000000f0
:2014fc000000000000000000000000000000000000000000000000000000000000000000d0
:20151c000000000000000000000000000000000000000000000000000000000000000000af
:0d153c0000000000000000000000000000a2
:20154900000000000000000000000000000000000000000000000000000000000000000082
:20156900000000000000000000000000000000000000100000000000000000000000000052
:20158900000000000000000000000000000000000000000000000000000000000000000042
:0d15a9000000000000000000000000000035
:2015b600000000000000000000000000000000000000000000000000000000000000000015
:2015d60000000000000000000000000000000000000a0000000000000000000000000000eb
:2015f6000000000000000000000000000000000000000000000000000000000000000000d5
:0d16160000000000000000000000000000c7
:201623000000000000000000000000000000000000000000000000000000000000000000a7
:20164300000000000000000000000000000000000002000000000000000000000000000085
:20166300000000000000000000000000000000000000000000000000000000000000000067
:0d168300000000000000000000000000005a
:2016900000000000000000000000000000000000000000000000000000000000000000003a
:2016b00000000000000000000000000000000000000000000000000000000000000000001a
:2016d0000000000004000000000000000000000000000000000000000000000000000000f6
:0d16f00000000000000000000000000000ed
:2016fd000000000000000000000000000000000000000000000000000000000000000000cd
:20171d000000000000000000000000000000000000000000000000000000000000000000ac
:20173d00000000000400000000000000000000000000000000000000000000000000000088
:0d175d00000000000000000000000000007f
:20176a0000000000000000000000000000000000000000000000000000000000000000005f
:20178a0000000000000000000000000000000000000000000000000020000000000000001f
:2017aa000000000000000000000000004000000000000000000000000000000000000000df
:0d17ca000000000000001000000000000002
:2017d7000000000000000000000000000000000000000000000000000000000000000000f2
:2017f7000000000000000000000000000000000000000c3c0000000050000000000000003a
:201817000000000000000000000000000000000000000000000000000000000000000000b1
:0d18370000000000000000000000000000a4
:20184400000000000000000000000000000000000000000000000000000000000000000084
:201864000000000000000000000000000000000000000020016020000000000000000000c3
:20188400000000000000000000000000000000000000000000000000000000000000000044
:0d18a4000000000000000000000000000037
:2018b100000000000000000000000000000000000000000000000000000000000000000017
:2018d100000000000000000000000000000000000000003c000000000000000000000000bb
:2018f1000000000000000000000000000000000000000000000000000000000000000000d7
:0d19110000000000000000000000000000c9
:20191e000000000000000000000000000000000000000000000000000000000000000000a9
:20193e00000000000000000000000000000000000000000000000000000000000000000089
:20195e00000000000000000000000000000000000000000000000000000000000000000069
:0d197e00000000000000000000000000005c
:20198b0000000000000000000000000000000000000000000000000000000000000000003c
:2019ab0000000000000000000000000000000000000000000000000000000000000000001c
:2019cb000000000000000000000000000000000000000000000000000000000000000000fc
:0d19eb0000000000000000000000000000ef
:2019f8000000000000000000000000000000000000000000000000000000000000000000cf
:201a180000000000000000000000000000000000000000000000000010000000000000009e
:201a380000000000000000000000000000000000000000000000000000000000000000008e
:0d1a58000000000000000000000000000081
:201a6500000000000000000000000000000000000000000000000000000000000000000061
:201a8500000000000000000000000000000000000000000000000000000000000000000041
:201aa500000000000000000000000000000000000000000000000000000000000000000021
:0d1ac5000000000000000000000000000014
:201ad2000000000000000000000000000000000000000000000000000000000000000000f4
:201af20000000000000000000000000000000000000c0004000000000000000000000000c4
:201b12000000000000000000000000000000000000000000000000000000000000000000b3
:0d1b320000000000000000000000000000a6
:201b3f00000000000000000000000000000000000000000000000000000000000000000086
:201b5f0000000000000000000000000000000000000c000200000000000000000000000058
:201b7f00000000000000000000000000000000000000000000000000000000000000000046
:0d1b9f000000000000000000000000000039
:201bac00000000000000000000000000000000000000000000000000000000000000000019
:201bcc000000000000000000000000000000000000001000000000000000000000000000e9
:201bec000000000000000000000000000000000000000000000000000000000000000000d9
:0d1c0c0000000000000000000000000000cb
:201c19000000000000000000000000000000000000000000000000000000000000000000ab
:201c390000000000000000000000000000000000000010000000000000000000000000007b
:201c590000000000000000000000000000000000000000000000000000000000000000006b
:0d1c7900000000000000000000000000005e
:201c860000000000000000000000000000000000000000000000000000000000000000003e
:201ca60000000000000000000000000000000000000a100000000000000000000000000004
:201cc6000000000000100000000000000000000000000000000000000000000000000000ee
:0d1ce60000000000000000000000000000f1
:201cf3000000000000000000000000000000000000000000000000000000000000000000d1
:201d1300000000000040000000000000000000000008100000000000000000000000000058
:201d3300000000000000000000000000000000000000000000000000000000000000000090
:0d1d53000000000000000000000000000083
:201d6000000000000000000000000000000000000000000000000000000000000000000063
:201d8000000000000000000000000000000000000000100000000000000000000000000033
:201da000000000000000000000000000000000000000000000000000000000000000000023
:0d1dc0000000000000000000000000000016
:201dcd000000000000000000000000000000000000000000000000000000000000000000f6
:201ded000000000000000000000000000000000000001000000000000000000000000000c6
:201e0d000000000000000000000000000000000000000000000000000000000000000000b5
:0d1e2d0000000000000000000000000000a8
:201e3a00000000000000000000000000000000000000000000000000000000000000000088
:201e5a00000000000000000000000000004000000000103c000000000000000000000000dc
:201e7a00000000000000000000000000000000000000000000000000000000000000000048
:0d1e9a00000000000000000000000000003b
:201ea70000000000000000000000000000000000000000000000000000000000000000001b
:201ec700000000000000000000000000000000000000101c000000000000000000000000cf
:201ee7000000000000000000000000000000000000000000000000000000000000000000db
:0d1f070000000000000000000000000000cd
:201f14000000000000000000000000000000000000000000000000000000000000000000ad
:201f3400000000000000000000000000000000000000000001600400000000000000000028
:201f540000000000000000000000000000000000000000000000000000000000000000006d
:0d1f74000000000000000000000000000060
:201f8100000000000000000000000000000000000000000000000000000000000000000040
:201fa100000000000000000000000000000000000000000000000000000000000000000020
:201fc100000000000000000000000000000000000000000000000000000000000000000000
:0d1fe10000000000000000000000000000f3
:201fee000000000000000000000000000000000000000000000000000000000000000000d3
:20200e000000000000000000000000000000000000000000000000000000000000000000b2
:20202e00000000000000000000000000000000000000000000000000000000000000000092
:0d204e000000000000000000000000000085
:20205b00000000000000000000000000000000000000000000000000000000000000000065
:20207b00000000000000000000000000000000000000000000000000000000000000000045
:20209b00000000000000000000000000000000000000000000000000000000000000000025
:0d20bb000000000000000000000000000018
:2020c8000000000000000000000000000000000000000000000000000000000000000000f8
:2020e8000000000000000000000000000000000000000000000000000000000000000000d8
:202108000000000000000000000000000000000000000000000000000000000000000000b7
:0d21280000000000000000000000000000aa
:2021350000000000000000000000000000000000000000000000000000000000000000008a
:2021550000000000000000000000000000000000000000000000000000000000000000006a
:2021750000000000000000000000000000000000000000000000000000000000000000004a
:0d219500000000000000000000000000003d
:2021a20000000000000000000000000000000000000000000000000000000000000000001d
:2021c2000000000000000000000000000000000000040000000000000000000000000000f9
:2021e2000000000000000000000000000000000000000000000000000000000000000000dd
:0d22020000000000000000000000000000cf
:20220f000000000000000000000000000000000000000000000000000000000000000000af
:20222f0000000000000000000000000000000000000c000000000000000000000000000083
:20224f0000000000000000000000000000000000000000000000000000000000000000006f
:0d226f000000000000000000000000000062
:20227c00000000000000000000000000000000000000000000000000000000000000000042
:20229c00000000000000000000000010000000000000000000000000000000000000000012
:2022bc00000000000000000000000000000000000000000000000000000000000000000002
:0d22dc0000000000000000000000000000f5
:2022e9000000000000000000000000000000000000000000000000000000000000000000d5
:20230900000000000000000000000028000000000000102400000000000000000000000058
:20232900000000000000000000000000000000000000000000000000000000000000000094
:0d2349000000000000000000000000000087
:20235600000000000000000000000000000000000000000000000000000000000000000067
:20237600000000000000000000000000000000000002001e00000000000000000000000027
:20239600000000000000000000000000000000000000000000000000000000000000000027
:0d23b600000000000000000000000000001a
:2023c3000000000000000000000000000000000000000000000000000000000000000000fa
:2023e3000000000000000000000000000000000000020000000000000000000000000000d8
:202403000000000000000000000000000000000000000000000000000000000000000000b9
:0d24230000000000000000000000000000ac
:2024300000000000000000000000000000000000000000000000000000000000000000008c
:2024500000000000000000000000000000000000000100000000000000000000000000006b
:2024700000000000000000000000000000000000000000000000000000000000000000004c
:0d249000000000000000000000000000003f
:20249d0000000000000000000000000000000000000000000000000000000000000000001f
:2024bd000000000000000000000000000000000000010000000000000000000000000000fe
:2024dd000000000000000000000000000000000000000000000000000000000000000000df
:0d24fd0000000000000000000000000000d2
:20250a000000000000000000000000000000000000000000000000000000000000000000b1
:20252a00000000000000000000000000000000000000000000000000000000000000000091
:20254a00000000000000000000000010000000000000000000000000000000000000000061
:0d256a000000000000000000000000000064
:20257700000000000000000000000000000000000000000000000000000000000000000044
:20259700000000000000000000000000000000000000000000000000000000000000000024
:2025b7000000000000000000000000100000000000000000000000000000000000000000f4
:0d25d70000000000000000000000000000f7
:2025e4000000000000000000000000000000000000000000000000000000000000000000d7
:20260400000000000000000000000000000000000000014000600400000000000000000011
:20262400000000000000000000000000000000000000000000000000000000000000000096
:0d2644000000000000000000000000000089
:20265100000000000000000000000000000000000000000000000000000000000000000069
:20267100000000000000000000000000000000000000000000000000000000000000000049
:20269100000000000000000000000000000000000000000000000000000000000000000029
:0d26b100000000000000000000000000001c
:2026be000000000000000000000000000000000000000000000000000000000000000000fc
:2026de0000000000000000000000000000000000000001400000000000000000000000009b
:2026fe000000000000000000000000000000000000000000000000000000000000000000bc
:0d271e0000000000000000000000000000ae
:20272b0000000000000000000000000000000000000000000000000000000000000000008e
:20274b0000000000000000000000000000000000000000000000000000000000000000006e
:20276b0000000000000000000000000000000000000000000000000000000000000000004e
:0d278b000000000000000000000000000041
:20279800000000000000000000000000000000000000000000000000000000000000000021
:2027b800000000000000000000000000000000000000000000000000000000000000000001
:2027d8000000000000000000000000000000000000000000000000000000000000000000e1
:0d27f80000000000000000000000000000d4
:202805000000000000000000000000000000000000000000000000000000000000000000b3
:20282500000000000000000000000000000000000000000000000000000000000000000093
:20284500000000000000000000000000000000000000000000000000000000000000000073
:0d2865000000000000000000000000000066
:20287200000000000000000000000000000000000000000000000000000000000000000046
:2028920000000000000000000000000000000000000c000400000000000000000000000016
:2028b200000000000000000000000000000000000000000000000000000000000000000006
:0d28d20000000000000000000000000000f9
:2028df000000000000000000000000000000000000000000000000000000000000000000d9
:2028ff0000000000000000000000000000000000000c0000000000000000000000000000ad
:20291f00000000000000000000000000000000000000000000000000000000000000000098
:0d293f00000000000000000000000000008b
:20294c0040000000000000000000000000000000000000000000000000000000000000002b
:20296c0000000000000000000000000000000000000010000000000000000000000000003b
:20298c0000000000000000000000000000000000000000000000000000000000000000002b
:0d29ac00000000000000000000000000001e
:2029b9000034000000000000000000000000000000000000000000000000000000000000ca
:2029d9000000000000000000000000000000000000001000000000000000000000000000ce
:2029f9000000000000000000000000000000000000000000000000000000000000000000be
:0d2a190000000000000000000000000000b0
:202a260000000000000000000000000000000000000000000000010000000000000000008f
:202a460000000000000000000000000000000000000a100000000000000000000000000056
:202a66000000000000800000000000000000000000000000000000000000000000000000d0
:0d2a86000000000000001000000000000033
:202a93008000000000000000000000000000000000000000000001000000000000000000a2
:202ab3000000000000000000000000000000000000081000000000000000000000000000eb
:202ad3000000000001000000000000000000000000000000000000000000000000000000e2
:0d2af30000000000000000000000000000d6
:202b0000400000000000000000000000000000000000000000000000000000000000000075
:202b2000000000000000000000000000000000000000100000000000000000000000000085
:202b4000000000000000000000000000000000000000000000000000000000000000000075
:0d2b60000000000000000000000000000068
:202b6d00080000000000000000000000000000000000000000000000000000000000000040
:202b8d00000000000000000000000000000000000000100000000000000000000000000018
:202bad0000000000000000000000000000000000000000000000000000a000000000000068
:0d2bcd0000000000000000000000000000fb
:202bda000000000000000000000000000000000000000000000000000000000000000000db
:202bfa000000000000000000000000000000000000001000000000000000000000000000ab
:202c1a0000000000000000000000000000000000000000000000000000000000000000009a
:0d2c3a00000000000000000000000000008d
:202c470000000000000000000000000000000000000000000000000000000000000000006d
:202c670000000000000000000000000000000000000010000000000000000000000000003d
:202c870000000000000000000000000000000000000000000000000000000000000000002d
:0d2ca7000000000000000000000000000020
:202cb400000000000000000000000000000000000000000000000000000000000000000000
:202cd400000000000000000000000000000000000000000078c040000000000000000a005e
:202cf4000000000000000000000000000000000000000000000000000000000000000000c0
:0d2d14000000000000002000000000000092
:202d2100000000000000000000000000000000000000000000000000000000000000000092
:202d4100000000000000000000000000000000000000000000200000000000000000000052
:202d6100000000000000000000000000000000000000000000000000000000000000000052
:0d2d81000000000000000000000000000045
:202d8e004404000000000000000000000000000000000000000000000000000000000000dd
:202dae000000000000000000000000000000000000000000000000001000000000000000f5
:202dce000000000004000000000000000000000000000000000000000000000000000000e1
:0d2dee0000000000000000000000000000d8
:202dfb000c2c00000000000000000000000000000000000000000000000000000000000080
:202e1b00000000000000000000000000000000000000000000000000000000000000000097
:202e3b00000000000000000000000000000000000000000000000000000000000000000077
:0d2e5b00000000000000000000000000006a
:202e680000000000000000000000000000000000000000000000000000000000000000004a
:202e8800000000000008000000000000000000000000000000000000000000000000000022
:202ea80000000000000000000000000000000000000000000000000000000000000000000a
:0d2ec80000000000000000000000000000fd
:202ed50080000000000000000000000000000000000000000000000000000000000000005d
:202ef5000000000000140000000000000000000000000000000000000000000000000000a9
:202f150000000000000000000000000000000000000000000000000000000000000000009c
:0d2f3500000000000000000000000000008f
:202f420040000000000000000000000000000000000000000000000000000000000000002f
:202f620000000000000000000000000000000000000c004e000000000000000000000000f5
:202f820000000000000000000000000000000000000000000000000000000000000000002f
:0d2fa2000000000000000000000000000022
:202faf00000000000000000000000000000000000000000000000000000000000000000002
:202fcf0000000000000000000000000000000000000c0002000000000000000000000000d4
:202fef000000000000000000000000000000000000000000000000000000000000000000c2
:0d300f0000000000000000000000000000b4
:20301c00000000000000000000000000000000000000000000000000000000000000000094
:20303c00000000000000000000000000000000000000000030000000000000000000000044
:20305c00000000000000000000000000000000000000000000000000000000000000000054
:0d307c000000000000000000000000000047
:20308900000000000000000000000000000000000000000000000000000000000000000027
:2030a900000000000000000000000000000000000000100c000000000000000000000000eb
:2030c9000000000000000000000000000000000000000000000000000000000000000000e7
:0d30e90000000000000000000000000000da
:2030f6000000000000000000000000000000000000000000000000000000000000000000ba
:2031160000000000000000000000000000000000000200000000002800000000000000006f
:20313600000000000000000000000000000000000000000000000000000000000000000079
:0d315600000000000000100000000000005c
:2031630000000000000000000000000000000000000000000000000000000000000000004c
:2031830000000000000000000000000000000000000200000000000000000000000000002a
:2031a300000000000000000000000000000000000000000000000000000000000000000408
:0d31c30000000000000000000000000000ff
:2031d0000000000000000000000000000000000000000000000000000000000000000000df
:2031f00000000000000000000000004000000000000000000000004000000000000000003f
:2032100000000000000000000000001000000000000000000000000000000000000000048a
:0d3230000000000000000000000000000091
:20323d00000000000000000000000000000000000000000000000000000000000000000071
:20325d00000000000000000000000040000000000000000000000000000000000000000011
:20327d0000000000000000000000001000000000000000000000000000000000000000041d
:0d329d000000000000000000000000000024
:2032aa00000000000000000000000000000000000000000000000000000000000000000004
:2032ca000000000000000000000000400000000000000000000000000000000000000000a4
:2032ea000000000004000000000000000000000000000000000000000000000000000004bc
:0d330a0000000000000000000000000000b6
:20331700000000000000000000000000000000000000000000000000000000000000000096
:20333700000000000000000000000000000000000000040000000000000000000000000072
:20335700000000000000000000000000000000000000000000000000000000000000000056
:0d3377000000000000000000000000000049
:20338400000000000000000000000000000000000000000000000000000000000000000029
:2033a400000000000000000000000000000000000000000000404000000000000000000089
:2033c4000000000000000000000000000000000000000000000000000000000000000000e9
:0d33e40000000000000000000000000000dc
:2033f1000000000000000000000000000000000000000000000000000000000000000000bc
:2034110000000000000000000000000000000000000000000020000000000000000000007b
:2034310000000000000000000000000000000000000000000000000000000000000000007b
:0d345100000000000000000000000000006e
:20345e0000000000000000000000000000000000000000000000000000000000000000004e
:20347e0000000000000000000000000000000000000000000000000000000000000000002e
:20349e0000000000000000000000000000000000000000000000000000000000000000000e
:0d34be000000000000000000000000000001
:2034cb000000000000000000000000000000000000000000000000000000000000000000e1
:2034eb000000000000000000000000000000000000000000000000000000000000000000c1
:20350b000000000000000000000000000000000000000000000000000000000000000000a0
:0d352b000000000000000000000000000093
:20353800000000000000000000000000000000000000000000000000000000000000000073
:20355800000000000000000000000000000000000000000000000000100000000000000043
:20357800000000000000000000000000000000000000000000000000000000000000000033
:0d3598000000000000000000000000000026
:2035a500000000000000000000000000000000000000000000000000000000000000000006
:2035c5000000000000000000000000000000000000000000000000000000000000000000e6
:2035e5000000000000000000000000000000000000000000000000000000000000000000c6
:0d36050000000000000000000000000000b8
:20361200000000000000000000000000000000000000000000000000000000000000000098
:2036320000000000000000000000000000000000000c000400000000000000000000000068
:20365200000000000000000000000000000000000000000000000000000000000000000058
:0d367200000000000000000000000000004b
:20367f0000000000000000000000000000000000000000000000000000000000000000002b
:20369f0000000000000000000000000000000000000c0002000000000000000000000000fd
:2036bf000000000000000000000000000000000000000000000000000000000000000000eb
:0d36df0000000000000000000000000000de
:2036ec000000000000000000000000000000000000000000000000000000000000000000be
:20370c0000000000000000000000000000000000000010000000000000000000000000008d
:20372c0000000000000000000000000000000000000000000000000000000000000000007d
:0d374c000000000000000000000000000070
:20375900000000000000000000000000000000000000000000000000000000000000000050
:20377900000000000000000000000000000000000000100000000000000000000000000020
:20379900000000000000000000000000000000000000000000000000000000000000000010
:0d37b9000000000000000000000000000003
:2037c6000000000000000000000000000000000000000000000000000000000000000000e3
:2037e60000000000000000000000000000000000000a1000000000000000000000000000a9
:203806000000000000000000000000000000000000000000000000000000000000000000a2
:0d3826000000000000000000000000000095
:20383300000000000000000000000000000000000000000000000000000000000000000075
:2038530000000000000000000000000000000000000810000000000000000000000000003d
:20387300000000000000000000000000000000000000000000000000000000000000000035
:0d3893000000000000000000000000000028
:2038a000000000000000000000000000000000000000000000000000000000000000000008
:2038c0000000000000000000000000000000000000001000000000000000000000000000d8
:2038e0000000000000000000000000000000000000000000000000000000000000000000c8
:0d39000000000000000000000000000000ba
:20390d0000000000000000000000000000000000000000000000000000000000000000009a
:20392d0000000000000000000000000000000000000010000000000000000000000000006a
:20394d0000000000000000000000000000000000000000000000000000000000000000005a
:0d396d00000000000000000000000000004d
:20397a0000000000000000000000000000000000000000000000000000000000000000002d
:20399a000000000000000000000000000000000000001000000000000000000000000000fd
:2039ba000000000000000000000000000000000000000000000000000000000000000000ed
:0d39da0000000000000000000000000000e0
:2039e7000000000000000000000000000000000000000000000000000000000000000000c0
:203a07000000000000a00000000000000000000000001000000000010000000000000000ee
:203a270000000000000000000000000000000000000000000000000000000000000000007f
:0d3a47000000000000000000000000000072
:203a5400000000000000000000000000000000000000000000000000000000000000000052
:203a7400000000000000000000000000000000000000000070c040000000000000000000c2
:203a9400000000000000000000000000000000000000000000000000000000000000000012
:0d3ab4000000000000000000000000000005
:203ac1000000000000000000000000000000000000000000000000000000000000000000e5
:203ae100000000000000000000000000000000000000000040200000000000000000000065
:203b01000000000000000000000000000000000000000000000000000000000000000000a4
:0d3b21000000000000000000000000000097
:203b2e00000000000000000000000000000000000000000000000000000000000000000077
:203b4e00000000000000000000000000000000000000100000000000000000000000000047
:203b6e00000000000000000000000000000000000000000000000000000000000000000037
:0d3b8e00000000000000000000000000002a
:203b9b0000000000000000000000000000000000000000000000000000000000000000000a
:203bbb000000000000000000000000000000000000000004000000000000000000000000e6
:203bdb000000000000000000000000000000000000000000000000000000000000000000ca
:0d3bfb0000000000000000000000000000bd
:203c080000000000000000000000000000000000000000000000000000000000000000009c
:203c280000000000000000000000000000000000000000000000000000000000000000007c
:203c480000000000000000000000000000000000000000000000000000000000000000005c
:0d3c6800000000000000000000000000004f
:203c750000000000000000000000000000000000000000000000000000000000000000002f
:203c950000000000000000000000000000000000000000000000000000000000000000000f
:203cb5000000000000000000000000000000000000000000000000000000000000000000ef
:0d3cd50000000000000000000000000000e2
:203ce2000000000000000000000000000000000000000000000000000000000000000000c2
:203d020000000000000000000000000000000000000c000000000000000000000000000095
:203d2200000000000000000000000000000000000000000000000000000000000000000081
:0d3d42000000000000000000000000000074
:203d4f00000000000000000000000000000000000000000000000000000000000000000054
:203d6f00000000000000000000000000000000000004000000000000000000000000000030
:203d8f00000000000000000000000000000000000000000000000000000000000000000014
:0d3daf000000000000000000000000000007
:203dbc000000000000000000000000000000000000000000000000000000000000000000e7
:203ddc00000000000000000000000000000000000000800000000000000000000000000047
:203dfc000000000000000000000000000000000000000000000000000000006bc8f50080ff
:0d3e1c000000000000000000000000000099
:203e2900000000000000000000000000000000000000000000000000000000000000000079
:203e4900000000000000000000000000000000000000102400000001000000000000000024
:203e69000000000000000000000000000000000000000000000000000000004250a0000007
:0d3e8900000000000000000000000000002c
:203e960000000000000000000000000000000000000000000000000000000000000000000c
:203eb6000000000000000000000000000000000000020000000000000000000000000000ea
:203ed6000000000000000000000000080000000000000000000000000000000000000000c4
:0d3ef60000000000000000000000000000bf
:203f030000000000000000000000000000000000000000000000000000000000000000009e
:203f230000000000000000000000000000000000000200000000000000000000000000007c
:203f43000000000000000000000000040000000000000380000000000000003400000000a3
:0d3f6300000000000000020000000000004f
:203f7000000000000000000000000000000000000000000000000000000000000000000031
:203f9000000000000000000000000000000000000000000000000000000000000000000011
:203fb0000000000000000000000000100000000000000000000000000200000000000000df
:0d3fd00000000000000000000000000000e4
:203fdd000000000000000000000000000000000000000000000000000000000000000000c4
:203ffd000000000000000000000000000000000000000000000000000000000000000000a4
:20401d00000000000000000000000010000000000000000000000000000000000000000073
:0d403d000000000000000000000000000076
:20404a00000000000000000000000000000000000000000000000000000000000000000056
:20406a00000000000000000000000000000000000000000000000000000000000000000036
:20408a00000000000000000000000000000000000000000000000000000000000000000016
:0d40aa000000000000000000000000000009
:2040b7000000000000000000000000000000000000000000000000000000000000000000e9
:2040d7000000000000000000000000000000000000000000000000000000000000000000c9
:2040f700000000000000000000000010000000000000000000000000000000000000000099
:0d411700000000000000000000000000009b
:2041240000000000000000000000000000000000000000000000000000000000000000007b
:20414400000000000000000000000000000000000000008001e000000000000000000000fa
:2041640000000000000000000000000000000000000000000000000000000000000000003b
:0d418400000000000000000000000000002e
:2041910000000000000000000000000000000000000000000000000000000000000000000e
:2041b1000000000000000000000000000000000000000100000020000000000000000000cd
:2041d1000000000000000000000000001000000000000000000000000000000000000000be
:0d41f10000000000000000000000000000c1
:2041fe000000000000000000000000000000000000000000000000000000000000000000a1
:20421e00000000000000000000000000000000000000100000000000000000000000100060
:20423e00000000000000000000000001000000000000040000000000000000000000000457
:0d425e004000000000000100000000000012
:20426b00000000000000000000000000000000000000000000000000000000000000000033
:20428b00000000000000000000000000000000000000000000000000000000000000000013
:2042ab000000000000000000000000000000000000000000000000000000000000000000f3
:0d42cb0000000000000000000000000000e6
:2042d8000000000000000000000000000000000000000000000000000000000000000000c6
:2042f8000000000000000000000000000000000000000000000000000000000000000000a6
:20431800000000000000000000000000000000000000000000000000000020000000000461
:0d4338000000000000000000000000000078
:20434500000000000000000000000000000000000000000000000000000000000000000058
:20436500000000000000000000000000000000000000000000000000000000000000000038
:2043850000000000000000000000000000000000000000000000000000001c0000000000fc
:0d43a500000000000000000000000000000b
:2043b2000000000000000000000000000000000000000000000000000000000000000000eb
:2043d20000000000000000000000000000000000000c00240000000000000000000000009b
:2043f2000000000000000000000000000000000000000000000000000000000000000000ab
:0d441200000000000000000000000000009d
:20441f0000000000000000000000000000000000000000000000000000000000000000007d
:20443f0000000000000000000000000000000000000c000c00000000000000000000000045
:20445f0000000000000000000000000000000000000000000000000000000000000000003d
:0d447f000000000000000000000000000030
:20448c00000000000000000000000000000000000000000000000000000000000000000010
:2044ac000000000000000000000000000000000000001000000000000000000000000000e0
:2044cc000000000001000000000000000000000000000000000000000000000000000000cf
:0d44ec0000500000000000016024af05003a
:2044f9000000000000000000000000000000000000000000000000000000000000000000a3
:20451900000000000000000000000000000000000000100000000000000000000000000072
:204539000000000000800000000000000000000000000000000000000000000000000000e2
:0d4559008008b0000000000403dccb20004f
:20456600000000000000000000000000000000000000000000000000000000000000000035
:2045860000000000000000000000000000000000000a101e000000000000000000000000dd
:2045a6000000000001000000000000000000000000000000000000000000000000000000f4
:0d45c60000000d23f800a000000000000020
:2045d3000000000000000000000000000000000000000000000000000000000000000000c8
:2045f300000000000000000000000000000000000008100000000000000000000000000090
:20461300000000000000000000000000000000000000000000000000000000000000000087
:0d463300000005e3fc008000000000000016
:2046400000000000000000000000000000000000000000000000000000000000000000005a
:2046600000000000000000000000000000000000000010000000000000000000000000002a
:2046800000000000000000000000000000000000000000000000000000000000000000001a
:0d46a0000000ad788009400200000000001d
:2046ad000000000000000000000000000000000000000000000000000000000000000000ed
:2046cd000000000000000000000000000000000000001000000000000000000000000000bd
:2046ed000000000000000000000000000000000000000000000000000000000000000000ad
:0d470d0000d1054000004000400000000009
:20471a0000000000000000000000000000000000000000000000000000000000000000007f
:20473a0000000000000000000000000000000000000010000000000000000000000000004f
:20475a000000000000000000000000000000000000004000000000000000000000000000ff
:0d477a0000500000000000000000000000e2
:20478700000000000000000000000000000000000000000000000000000000000000000012
:2047a7000000000000000000000000000000000000001000000000000000000000000000e2
:2047c700000000000000000000000000000000000000400000000000000000000000000092
:0d47e70000d80000000000000000000000ed
:2047f4000000000000000000000000000000000000000000000000000000000000000000a5
:20481400000000000000000000000000000000000000000000601000000000000000000014
:20483400000000000000000000000000000000000000000000000000000000000000000064
:0d4854000000000000000000000000000057
:20486100000000000000000000000000000000000000000000000000000000000000000037
:20488100000000000000000000000000000000000000000000000000000000000000000017
:2048a1000000000000000000000000000000000000000000000000000000000000000000f7
:0d48c10000000000000000034000000000a7
:2048ce000000000000000000000000000000000000000000000000000000000000000000ca
:2048ee0000000000000000000000000000000000000000000000000010000000000000009a
:20490e00000000000005000000000000000000000000000000000000000000000000000084
:0d492e00000000000000000000000000007c
:20493b0000000000000000000000000000000000000000000000000000000000000000005c
:20495b00000000000000000000000000000000000000002400000000000000000000000018
:20497b0000000000000000000000000000000000000000000000000000000000000000001c
:0d499b00000000000000000000000000000f
:2049a8000000000000000000000000000000000000000000000000000000000000000000ef
:2049c8000000000000000000000000000000000000000000000000000000000000000000cf
:2049e8000000000000000000000000000000000000000000000000000000000000000000af
:0d4a080000000000000000000000000000a1
:204a1500000000000000000000000000000000000000000000000000000000000000000081
:204a3500000000000000000000000000000000000000000000000000000000000000000061
:204a5500000000000000000000000000000000000000000000000000000000000000000041
:0d4a75000000000000000000000000000034
:204a8200000000000000000000000000000000000000000000000000000000000000000014
:204aa20000000000000000000000000000000000000c0040000000000000000000000000a8
:204ac2000000000000000000000000000000000000000000000000000000000000000000d4
:0d4ae2000000000000000001400000000086
:204aef000000000000000000000000000000000000000000000000000000000000000000a7
:204b0f00000000000000000000000000000000000004000000000000000000000000000082
:204b2f00000000000000000000000000000000000000000000000000000000000000000066
:0d4b4f000000a00000000000200000000099
:204b5c004000000000000000000000000000000000000000000000000000000000000000f9
:204b7c000000000000000000000000000000000000000000680000000000000000000000b1
:204b9c000000000000000000000000000000000000000000000000000000000000000000f9
:0d4bbc00000007225b000000000000000068
:204bc9000000000000000000000000000000000000000000000000000000000000000000cc
:204be900000000000000000000000000000000000000100c40000000000000000000000050
:204c090000000000000000000000000000000000000000000000000000000000000000008b
:0d4c2900000000025808000000000000001c
:204c360000000000000000000000000000000000000000000000000000000000000000005e
:204c560000000000000000000000000000000000000200000000000000000000000000003c
:204c76000000000000000000000000000000000000000000000000000000000000000028f6
:0d4c9600000007225b00b02000200a54003f
:204ca300800000000000000000000000000000000000000000000000000000000000000071
:204cc3000000000000000000000000000000000000020000000000000000000000000000cf
:204ce300000000000000000000000000000000000000000000000000000000000000002091
:0d4d03000000000258008000001405a00010
:204d100044000000000000000000000000000000000000000000000000000000000000003f
:204d3000000000000000000000000040000000000000000000000000000000000000000023
:204d5000000000000000000000000000000000000000000000000000000000000000001033
:0d4d70000001b5225b000000000000000003
:204d7d0008000000000000000000000000000000000000000000000000000000000000000e
:204d9d000000000000000000000000400000000000000000000000000000000000000000b6
:204dbd000000000000000000000000000000000000000000000000000000000000000030a6
:0d4ddd00000180825800000000000000006e
:204dea000000000000000000000000000000000000000000000000000000000000000000a9
:204e0a00000000000000000000000000000000000000000000000000000000000000000088
:204e2a00000000000000000000000000000000000000000000000000000000000000000464
:0d4e4a00000007225b0000000000000000d7
:204e570000000000000000000000000000000000000000000000000000000000000000003b
:204e770000000000000000000000000000000000000000000000000000000000000000001b
:204e97000000000000000000000000000000000000000000000000000000000000000000fb
:0d4eb70000000082580000004000000000d4
:204ec400007c00000000000000000000000000000000000000000000000000000000000052
:204ee40000000000000000000000000000000000000000000040040000000000000000006a
:204f040000000000000000000000000000000000000000000000000000000000000000008d
:0d4f2400000007a25b00000060000000001c
:204f310000340000000000000000000000000000000000000000000000000000000000002c
:204f5100000000000000000000000000000000000000000000200000000000000000000020
:204f7100000000000000000000000000000000000000000000000000000000000000000020
:0d4f910000000002580000000000000000b9
:204f9e0044000000000000000000000000000000000000000000000080000000000000002f
:204fbe00000000000000000000000000000000000000000000000000500000000000000083
:204fde000000000000000000000000000000000000000000000000000000000000000000b3
:0d4ffe00008007a259000000000000000024
:20500b0008000000000000000000000000000000000000000000000100000000000000007c
:20502b000000000000000000000000000000000000000a000000000000000000000000005b
:20504b00000000000000000000000000000000000000000000000000000000000000000045
:0d506b00007000025800000000000000006e
:20507800000000000000000000000000000000000000000000000000000000000000000018
:205098000000000000000000000000000000000000000000000000001000000000000000e8
:2050b8000000000000000000000000000000000000000000000000000000000000000000d8
:0d50d8000099800000000000000da05110a4
:2050e50080000000000000000000000000000000000000000000000000000000000000002b
:2051050000000000000000000000000000000000000000000000000000000000000000008a
:2051250000000000000000000000000000000000000000000000000000000000000000006a
:0d51450000100000000000000000005000fd
:205152004000000000000000000400000000000000000000000000000000000000000000f9
:2051720000000000000000000000000000000000000c00040000000000000000000000000d
:205192000000000000000000000000000000000000000000000000000000000000000030cd
:0d51b2000098000000000000000000000058
:2051bf000000000000000000000a00000000000000000000000000000000000000000000c6
:2051df0000000000000000000000000000000000000c0002000000000000000000000000a2
:2051ff000000000000000000000000000000000000000380000000000000000000000010fd
:0d521f000010000000000000000000000072
:20522c00000000000000000000000000000000000000000000000000000000000000000062
:20524c00000000000000000000000000000000000000100000000000000000000000000032
:20526c0000000000000000000000000000001c896c00018000000000000000000000000090
:0d528c000000000000000000000000000015
:205299000000000000000000000000000000000000000000000000000000000000000000f5
:2052b9000000000000000000000000000000000000001000000000000000000000000000c5
:2052d900000000000000000000000000000000096024000000000000000000000000000028
:0d52f90000000000000000000000000000a8
:20530600000000000000000000000000000000000000000000000000000000000000000087
:20532600000000000a0000000000000000000000000a100000000000000000000000000043
:205346000000000000000000000000a000001c896c0280080000000000000000000000000c
:0d536600000000000000000010000000002a
:2053730000000000000000000000000000000000000000000000000000000000000000001a
:205393000000000000000000000000000000000000081000000000000000000000000000e2
:2053b30000000000000000000000008003c000096006000b0000000000000000000000001d
:0d53d30000000000000000000000000000cd
:2053e0000000000000000000000000000000000000000000000000000000000000000000ad
:205400000000000000c00000000000000000000000001000000000000000000000000000bc
:205420000000000000000000000000c0000654896c00000000df03c00000000000000000bb
:0d544000000000000000000000000000005f
:20544d0000000000000000000000000000000000000000000000000000000000000000003f
:20546d0000000000000000000000000000000000000010000000000000000000000000000f
:20548d00000000000000000000000040000202096010000000142bc0000000000000000043
:0d54ad0000000000000000000000000000f2
:2054ba000000000000000000000000000000000000000000000000000000000000000000d2
:2054da00000000000000000000000000000000000000100000000000000000000000014061
:2054fa00000000000000000801688400006054896c000008000000000000000000000000ec
:0d551a0000040000000000a00000000000e0
:20552700000000000000000000000000000000000000000000000000000000000000000064
:205547000000000000000000000000000000000000001000000000000000000000000080b4
:2055670000000000000000030294000000020209601000010000000000000000000000000d
:0d5587000000000000000000000000000017
:205594000000000000000000000000000000000000000000000000000000000000000000f7
:2055b400000000000000000000000000000000000000000001e040000000000000000000b6
:2055d40000000000000000000000000000005e896c1000000080295000000000000000005b
:0d55f400000000000000200000000000008a
:20560100000000000000000000000000000000000000000000000000000000000000000089
:20562100000000000000000000000000000000000000000000000000000000000000000069
:205641000000000000000000000000000002800960000000001016800000000000000000b8
:0d566100000000000000000000000000003c
:20566e0000000000000000000000000000000000000000000000000000000000000000001c
:20568e000000000000000000000000000000000000000000000000000000000000000000fc
:2056ae00000000000000100000000000000016896c0000000e0000000000000000000000b3
:0d56ce0000000000000000000000000000cf
:2056db000000000000000000000000000000000000000000000000000000000000000000af
:2056fb0000000000000000000000000000000000000000000000000000000000000000008f
:20571b00000000000000000000000000000000096004000000000000000000000000000001
:0d573b000000000000000000000000000061
:20574800000000000000000000000000000000000000000000000000000000000000000041
:2057680000000000000000000000000000000000000000000000000380000000000000009e
:20578800000000000000000000000000026016896c00000000000000000000000000000094
:0d57a80000000000000000000000000000f4
:2057b5000000000000000000000000000000000000000000000000000000000000000000d4
:2057d5000000000000000000000000000000000000000000000000000000000000000000b4
:2057f5000000000000000000000000000040020960040000000000000000000000000000e5
:0d5815000000000000000000000000000086
:20582200000000000000000000000000000000000000000000000000000000000000000066
:2058420000000000000000000000000000000000000c001400000000000000000000000026
:2058620000000000000000000000004002061e896c100000000000000000000000000000bb
:0d5882000000000000000000000000000019
:20588f000000000000000000000000000000000000000000000000000000000000000000f9
:2058af0000000000000000000000000000000000000c003c00000000000000000000000091
:2058cf000000000000000000000000400040020960000000000000000000000000000000ce
:0d58ef0000000000000000000000000000ac
:2058fc0000000000000000000000000000000000000000000000000000000000000000008c
:20591c00000000000000000000000000000000000000000000000000000800000000002043
:20593c0020000000000099916a80000008005489640000000000000000008003cfe5008017
:0d595c00000000000000000000000000003e
:2059690000000000000000000000000000000000000000000000000000000000000000001e
:20598900000000000000000000000000000000000000502400000003001000000000001c5b
:2059a90000000000000099908280000004024009604000000000000000004001ed980000fe
:0d59c90000000000000000000000000000d1
:2059d6000000000000000000000000000000000000000000000000000000000000000000b1
:2059f6000000000000000000000000000000000000020000000000018001000000000014f9
:205a16000000000000000185230408a000000000000000000000000000000000000000001b
:0d5a36000000000000000000000000000063
:205a4300000000000000000000000000000000000000000000000000000000000000000043
:205a6300000000000000000000000000000000000002000000000000000e00000000000211
:205a83000000000000000105430c008003c00000000100000000000000000000000000006a
:0d5aa30000000000000000000000000000f6
:205ab0000000000000000000000000000000000000000000000000000000000000000000d6
:205ad0000000000000000000000000000000000000000000000000000000000000000000b6
:205af000297ea000000099afbbdc0840020000000000000000000000000000000000000026
:0d5b10000200000000000000000000000086
:205b1d00000000000000000000000000000000000000000000000000000000000000000068
:205b3d00000000000000000000000000000000000000000000000000000000000000000048
:205b5d0043f000000000980503fc0040004000000000000000000000008000000000000059
:0d5b7d00000000000000000000000000001b
:205b8a000000000000000000000000000000000000000000000000000000000000000000fb
:205baa00000000000000000000000000000000000000000004000000000000000000014096
:205bca0061daaf020000981fabf488000000000000000000000000000000000000000000f1
:0d5bea00000000303cc0000800000000007a
:205bf70000000000000000000000000000000000000000000000000000000000000000008e
:205c170000000000000000000000000000000000000000003c00000000000000000000b47d
:205c37002fd0420000009899c3f0c000000000000000000000000000000000000000000068
:0d5c5700000000003c0100100000000000f3
:205c6400000000000000000000000000000000000000000000000000000000000000000020
:205c840000000000000000000000000000000000000000000160400000000000000000203f
:205ca400684c002000008005e3d400000000000000000000000000000000000000000000d0
:0d5cc40000800000000000a00000000000b3
:205cd1000000000000000000000000000000000000000000000000000000000000000000b3
:205cf100000000000000000000000000000000000000000000200000000000000000002c47
:205d110000f8010000005000c3d40000000000000000000000000000000000000000000092
:0d5d310080d0000000000000000000000015
:205d3e00000000000000000000000000000000000000000000000000000000000000000045
:205d5e00000000000000000000000000000000000000a00000000000058076410000000049
:205d7e0000000000000000086bd4000080000000000000000000000000000000000000003e
:0d5d9e0000000000000000200000000000d8
:205dab000000000000000000000000000000000000000000000000000000000000000000d8
:205dcb000000000000000000000000000000000000004c000000000000809f000800000045
:205deb00000000000000000d03e8000000000000000000000000000000010024000000007b
:0d5e0b00000000000000000000000000008a
:205e180000000000000000000000000000000000000000000000000000000000000000006a
:205e3800000000000000000000000000000000000000008000000000001c000000000004aa
:205e5800387af5000000800123d4000000000000000000000000000000000000000000000b
:0d5e780000000000000000200000000000fd
:205e85000000000000000000000000000000000000000000000000000000000000000000fd
:205ea50000000000000000000000000000000000000001400000000000000000000000029a
:205ec5003b40ff000000500963ec00001400000000000000000000000000243c0000000027
:0d5ee50000000000000000000000000000b0
:205ef200000000000000000000000000000000000000000000000000000000000000000090
:205f120000000000000000000000000000000000000c00040000000000000000000000005f
:205f3200060ee0020000998fb280084000000000000000000000000000a01c0000000000fb
:0d5f52000000000000000000000000000042
:205f5f00000000000000000000000000000000000000000000000000000000000000000022
:205f7f0000000000000000000000000000000000000c0000000000030000000000000000f3
:205f9f002350d0000004100503800040000000000000000000000000004002000000000081
:0d5fbf0001000000000000000000000000d4
:205fcc000000000000000000000000000000000000000000000000000000000000000000b5
:205fec00000000000000000000000000000000000000100070000000000000000000000015
:20600c0001c896c0000000000000000000000000000001801c00000000000005c896c02075
:0d602c000000000000000000000000000067
:20603900000000000000000000000000000000000000000000000000000000000000000047
:206059000000000000000000000000000000000000001000400000000000000000000000d7
:2060790000009602000000000000000001420000000000001000000000000028009602005c
:0d60990000000000000000000000000000fa
:2060a6000000000000000000000000000000000000000000000000000000000000000000da
:2060c60000000000000000000000000000000000000a11000000000000000000000a000095
:2060e60001c896c00000000000000000001065ee500000001a0000000a0020014896c008dd
:0d6106000080002bc106000000000000001a
:2061130000000000000000000000001000000000000000000000000000000000000000005c
:206133000000000000000000000000000000000000081080000000000000000000080000ac
:2061530000009600000000000000000000035fbff0000000000000000a00140000960028a9
:0d61730000b00043c000000000000000006c
:206180000000000000000000000000000000000000000000000000000000000000000000ff
:2061a0000000000000000000000000000000000000001000000000000000000000000000cf
:2061c000654896c0000000000000000000000000000000038ebba840140006654896c0006b
:0d61e0000071e00000000000000000000061
:2061ed00000000000000000000000000000000000000000000000000000000000000000092
:20620d00000000000000000000000000000000000000100000000000000000000000000061
:20622d0020209600000000000000000001c2c00000000000803b5080440000202096000053
:0d624d000001000000000000000000000043
:20625a00000000000000000000000000000000000000000000000000000000000000000024
:20627a000000000000000000000000000000000000001000000000000000000000000006ee
:20629a00054896c0000000000000000002000000000040070056bf40800006014896c0007e
:0d62ba0000000000000000000000000000d7
:2062c7000000000000000000000000000000000000000000000000000000000000000000b7
:2062e700000000000000000000000000000000000000100000000000000000000000000087
:2063070020209600000000000000000002c380000000000000083f400000000020960040de
:0d6327000000000000000000000000000069
:20633400000000000000000000000000000000000000000000000000000000000000000049
:206354000000000000000000000000000000000000000000004040000000000000000000a9
:2063740001e896c0000000000000000000000000000000000016020080000001e896c000f3
:0d63940000000000000000000000000000fc
:2063a1000000000000000000000000000000000000000000000000000000000000000000dc
:2063c10000000000000000000000000000000000000000000020000000000000000000009c
:2063e10000009600000000000000000000000000000000000e5c00000000000000960040c6
:0d640100000000000000000000000000008e
:20640e0000000000000000000000000000000000000000000000000000000000000000006e
:20642e0000000000000000000000000000000000000000000000000010000000000000003e
:20644e00016896c0000000000000000000000000000000000a000000000000016896c000a6
:0d646e000000000000000000000000000021
:20647b00000000000000000000000000000000000000000000000000000000000000000001
:20649b000000000000000000000000000000000000000000000000000000000000000000e1
:2064bb0000009600000000000000000000000000000000071000000000000000009600007e
:0d64db0000000000000000000000000000b4
:2064e800000000000000000000000000000000000000000000000000000000000000000094
:206508000000000000000000000000000000000000000000000000038000000000000026ca
:20652800016896c00000000000000000000016af500000000000000000002401e89640009c
:0d6548000000000000000000000000000046
:20655500000000000000000000000000000000000000000000000000000000000000000026
:20657500000000000000000000000000000000000000000000000000000000000000000402
:206595000020960000000000000000000000020f500000070000000000000400209600000e
:0d65b50000000000000000000000000000d9
:2065c2000000000000000000000000000000000000000000000000000000000000000000b9
:2065e20000000000000000000000000000000000000c001c0000000000000000000c002e37
:2066020061e896c000040000000000000002a58ff020000000000000040020040000001057
:0d662200000000000000000000000000006b
